{
  "_format": "hh-sol-artifact-1",
  "contractName": "Marketplace",
  "sourceName": "src/backend/contracts/Marketplace.sol",
  "abi": [
    {
      "inputs": [
        {
          "internalType": "uint256",
          "name": "_feePercent",
          "type": "uint256"
        }
      ],
      "stateMutability": "nonpayable",
      "type": "constructor"
    },
    {
      "anonymous": false,
      "inputs": [
        {
          "indexed": false,
          "internalType": "uint256",
          "name": "itemId",
          "type": "uint256"
        },
        {
          "indexed": true,
          "internalType": "address",
          "name": "nft",
          "type": "address"
        },
        {
          "indexed": false,
          "internalType": "uint256",
          "name": "tokenId",
          "type": "uint256"
        },
        {
          "indexed": false,
          "internalType": "uint256",
          "name": "price",
          "type": "uint256"
        },
        {
          "indexed": true,
          "internalType": "address",
          "name": "seller",
          "type": "address"
        },
        {
          "indexed": true,
          "internalType": "address",
          "name": "buyer",
          "type": "address"
        }
      ],
      "name": "Bought",
      "type": "event"
    },
    {
      "anonymous": false,
      "inputs": [
        {
          "indexed": false,
          "internalType": "uint256",
          "name": "itemId",
          "type": "uint256"
        },
        {
          "indexed": true,
          "internalType": "address",
          "name": "nft",
          "type": "address"
        },
        {
          "indexed": false,
          "internalType": "uint256",
          "name": "tokenId",
          "type": "uint256"
        },
        {
          "indexed": false,
          "internalType": "uint256",
          "name": "price",
          "type": "uint256"
        },
        {
          "indexed": true,
          "internalType": "address",
          "name": "seller",
          "type": "address"
        }
      ],
      "name": "Offered",
      "type": "event"
    },
    {
      "stateMutability": "payable",
      "type": "fallback"
    },
    {
      "inputs": [
        {
          "internalType": "uint256",
          "name": "itemId",
          "type": "uint256"
        }
      ],
      "name": "_checkAuctionStatus",
      "outputs": [
        {
          "internalType": "bool",
          "name": "",
          "type": "bool"
        }
      ],
      "stateMutability": "view",
      "type": "function"
    },
    {
      "inputs": [
        {
          "internalType": "uint256",
          "name": "itemId",
          "type": "uint256"
        }
      ],
      "name": "_updateStatus",
      "outputs": [],
      "stateMutability": "nonpayable",
      "type": "function"
    },
    {
      "inputs": [
        {
          "internalType": "uint256",
          "name": "itemId",
          "type": "uint256"
        }
      ],
      "name": "bid",
      "outputs": [],
      "stateMutability": "payable",
      "type": "function"
    },
    {
      "inputs": [
        {
          "internalType": "uint256",
          "name": "itemId",
          "type": "uint256"
        },
        {
          "internalType": "address",
          "name": "_msgSender",
          "type": "address"
        }
      ],
      "name": "concludeAuction",
      "outputs": [],
      "stateMutability": "payable",
      "type": "function"
    },
    {
      "inputs": [
        {
          "internalType": "contract IERC721",
          "name": "_nft",
          "type": "address"
        },
        {
          "internalType": "uint256",
          "name": "_tokenId",
          "type": "uint256"
        },
        {
          "internalType": "uint256",
          "name": "_basePrice",
          "type": "uint256"
        },
        {
          "internalType": "uint256",
          "name": "endTime",
          "type": "uint256"
        }
      ],
      "name": "createAuction",
      "outputs": [],
      "stateMutability": "nonpayable",
      "type": "function"
    },
    {
      "inputs": [],
      "name": "feeAccount",
      "outputs": [
        {
          "internalType": "address payable",
          "name": "",
          "type": "address"
        }
      ],
      "stateMutability": "view",
      "type": "function"
    },
    {
      "inputs": [],
      "name": "feePercent",
      "outputs": [
        {
          "internalType": "uint256",
          "name": "",
          "type": "uint256"
        }
      ],
      "stateMutability": "view",
      "type": "function"
    },
    {
      "inputs": [
        {
          "internalType": "uint256",
          "name": "itemId",
          "type": "uint256"
        }
      ],
      "name": "getLastTime",
      "outputs": [
        {
          "internalType": "uint256",
          "name": "",
          "type": "uint256"
        }
      ],
      "stateMutability": "view",
      "type": "function"
    },
    {
      "inputs": [
        {
          "internalType": "uint256",
          "name": "_itemId",
          "type": "uint256"
        }
      ],
      "name": "getTotalPrice",
      "outputs": [
        {
          "internalType": "uint256",
          "name": "",
          "type": "uint256"
        }
      ],
      "stateMutability": "view",
      "type": "function"
    },
    {
      "inputs": [
        {
          "internalType": "uint256",
          "name": "itemId",
          "type": "uint256"
        }
      ],
      "name": "isAuction",
      "outputs": [
        {
          "internalType": "bool",
          "name": "",
          "type": "bool"
        }
      ],
      "stateMutability": "view",
      "type": "function"
    },
    {
      "inputs": [],
      "name": "itemCount",
      "outputs": [
        {
          "internalType": "uint256",
          "name": "",
          "type": "uint256"
        }
      ],
      "stateMutability": "view",
      "type": "function"
    },
    {
      "inputs": [
        {
          "internalType": "uint256",
          "name": "",
          "type": "uint256"
        }
      ],
      "name": "items",
      "outputs": [
        {
          "internalType": "uint256",
          "name": "itemId",
          "type": "uint256"
        },
        {
          "internalType": "contract IERC721",
          "name": "nft",
          "type": "address"
        },
        {
          "internalType": "uint256",
          "name": "tokenId",
          "type": "uint256"
        },
        {
          "internalType": "uint256",
          "name": "price",
          "type": "uint256"
        },
        {
          "internalType": "address payable",
          "name": "seller",
          "type": "address"
        },
        {
          "internalType": "bool",
          "name": "sold",
          "type": "bool"
        }
      ],
      "stateMutability": "view",
      "type": "function"
    },
    {
      "inputs": [
        {
          "internalType": "contract IERC721",
          "name": "_nft",
          "type": "address"
        },
        {
          "internalType": "uint256",
          "name": "_tokenId",
          "type": "uint256"
        },
        {
          "internalType": "uint256",
          "name": "_price",
          "type": "uint256"
        }
      ],
      "name": "makeItem",
      "outputs": [],
      "stateMutability": "nonpayable",
      "type": "function"
    },
    {
      "inputs": [
        {
          "internalType": "address",
          "name": "",
          "type": "address"
        },
        {
          "internalType": "uint256",
          "name": "",
          "type": "uint256"
        }
      ],
      "name": "payedBids",
      "outputs": [
        {
          "internalType": "uint256",
          "name": "",
          "type": "uint256"
        }
      ],
      "stateMutability": "view",
      "type": "function"
    },
    {
      "inputs": [
        {
          "internalType": "uint256",
          "name": "_itemId",
          "type": "uint256"
        }
      ],
      "name": "purchaseItem",
      "outputs": [],
      "stateMutability": "payable",
      "type": "function"
    },
    {
      "inputs": [],
      "name": "totalAuctionCompleted",
      "outputs": [
        {
          "internalType": "uint256",
          "name": "",
          "type": "uint256"
        }
      ],
      "stateMutability": "view",
      "type": "function"
    },
    {
      "inputs": [],
      "name": "totalVolume",
      "outputs": [
        {
          "internalType": "uint256",
          "name": "",
          "type": "uint256"
        }
      ],
      "stateMutability": "view",
      "type": "function"
    },
    {
      "stateMutability": "payable",
      "type": "receive"
    }
  ],
  "bytecode": "0x60c06040523480156200001157600080fd5b5060405162002f4438038062002f4483398181016040528101906200003791906200009c565b60016000819055503373ffffffffffffffffffffffffffffffffffffffff1660808173ffffffffffffffffffffffffffffffffffffffff1660601b815250508060a0818152505050620000ec565b6000815190506200009681620000d2565b92915050565b600060208284031215620000af57600080fd5b6000620000bf8482850162000085565b91505092915050565b6000819050919050565b620000dd81620000c8565b8114620000e957600080fd5b50565b60805160601c60a051612e21620001236000396000818161182a0152611a650152600081816112c30152611cf50152612e216000f3fe6080604052600436106101015760003560e01c80636bfb0d0111610095578063bbc215c311610064578063bbc215c314610322578063bfb231d21461035f578063ca7dd375146103a1578063d38ea5bf146103de578063fa00afc7146103fa57610108565b80636bfb0d01146102525780637bce3b1b1461027d5780637fd6f15c146102ba5780638704f2a3146102e557610108565b80635f81a57c116100d15780635f81a57c146101b757806361beb1d7146101e257806365e17c9d1461020b5780636bf774a71461023657610108565b80623db6d21461010a5780632212c6941461013357806327fabf7714610170578063454a2ab31461019b57610108565b3661010857005b005b34801561011657600080fd5b50610131600480360381019061012c91906122f9565b610423565b005b34801561013f57600080fd5b5061015a600480360381019061015591906122f9565b610710565b60405161016791906125e5565b60405180910390f35b34801561017c57600080fd5b506101856108ca565b60405161019291906127c0565b60405180910390f35b6101b560048036038101906101b091906122f9565b6108d0565b005b3480156101c357600080fd5b506101cc610efd565b6040516101d991906127c0565b60405180910390f35b3480156101ee57600080fd5b5061020960048036038101906102049190612296565b610f03565b005b34801561021757600080fd5b506102206112c1565b60405161022d9190612593565b60405180910390f35b610250600480360381019061024b9190612322565b6112e5565b005b34801561025e57600080fd5b506102676117fd565b60405161027491906127c0565b60405180910390f35b34801561028957600080fd5b506102a4600480360381019061029f919061220b565b611803565b6040516102b191906127c0565b60405180910390f35b3480156102c657600080fd5b506102cf611828565b6040516102dc91906127c0565b60405180910390f35b3480156102f157600080fd5b5061030c600480360381019061030791906122f9565b61184c565b60405161031991906125e5565b60405180910390f35b34801561032e57600080fd5b50610349600480360381019061034491906122f9565b611891565b60405161035691906127c0565b60405180910390f35b34801561036b57600080fd5b50610386600480360381019061038191906122f9565b6119d6565b604051610398969594939291906127db565b60405180910390f35b3480156103ad57600080fd5b506103c860048036038101906103c391906122f9565b611a5f565b6040516103d591906127c0565b60405180910390f35b6103f860048036038101906103f391906122f9565b611ac2565b005b34801561040657600080fd5b50610421600480360381019061041c9190612247565b611efa565b005b600060056000838152602001908152602001600020604051806101200160405290816000820160009054906101000a900460ff16151515158152602001600182015481526020016002820160009054906101000a900473ffffffffffffffffffffffffffffffffffffffff1673ffffffffffffffffffffffffffffffffffffffff1673ffffffffffffffffffffffffffffffffffffffff168152602001600382015481526020016004820160009054906101000a900473ffffffffffffffffffffffffffffffffffffffff1673ffffffffffffffffffffffffffffffffffffffff1673ffffffffffffffffffffffffffffffffffffffff1681526020016005820154815260200160068201548152602001600782015481526020016008820160009054906101000a900460ff1615151515815250509050600015158161010001511515146105a6576040517f08c379a000000000000000000000000000000000000000000000000000000000815260040161059d906126c0565b60405180910390fd5b8060c001514211156105c5576001816101000190151590811515815250505b806005600084815260200190815260200160002060008201518160000160006101000a81548160ff0219169083151502179055506020820151816001015560408201518160020160006101000a81548173ffffffffffffffffffffffffffffffffffffffff021916908373ffffffffffffffffffffffffffffffffffffffff1602179055506060820151816003015560808201518160040160006101000a81548173ffffffffffffffffffffffffffffffffffffffff021916908373ffffffffffffffffffffffffffffffffffffffff16021790555060a0820151816005015560c0820151816006015560e082015181600701556101008201518160080160006101000a81548160ff02191690831515021790555090505060006005600084815260200190815260200160002060000160006101000a81548160ff0219169083151502179055505050565b60008060056000848152602001908152602001600020604051806101200160405290816000820160009054906101000a900460ff16151515158152602001600182015481526020016002820160009054906101000a900473ffffffffffffffffffffffffffffffffffffffff1673ffffffffffffffffffffffffffffffffffffffff1673ffffffffffffffffffffffffffffffffffffffff168152602001600382015481526020016004820160009054906101000a900473ffffffffffffffffffffffffffffffffffffffff1673ffffffffffffffffffffffffffffffffffffffff1673ffffffffffffffffffffffffffffffffffffffff1681526020016005820154815260200160068201548152602001600782015481526020016008820160009054906101000a900460ff1615151515815250509050600073ffffffffffffffffffffffffffffffffffffffff16816040015173ffffffffffffffffffffffffffffffffffffffff1614156108bc576040517f08c379a00000000000000000000000000000000000000000000000000000000081526004016108b390612760565b60405180910390fd5b806101000151915050919050565b60045481565b600060056000838152602001908152602001600020604051806101200160405290816000820160009054906101000a900460ff16151515158152602001600182015481526020016002820160009054906101000a900473ffffffffffffffffffffffffffffffffffffffff1673ffffffffffffffffffffffffffffffffffffffff1673ffffffffffffffffffffffffffffffffffffffff168152602001600382015481526020016004820160009054906101000a900473ffffffffffffffffffffffffffffffffffffffff1673ffffffffffffffffffffffffffffffffffffffff1673ffffffffffffffffffffffffffffffffffffffff1681526020016005820154815260200160068201548152602001600782015481526020016008820160009054906101000a900460ff161515151581525050905060001515816101000151151514610a53576040517f08c379a0000000000000000000000000000000000000000000000000000000008152600401610a4a906126a0565b60405180910390fd5b600073ffffffffffffffffffffffffffffffffffffffff16816040015173ffffffffffffffffffffffffffffffffffffffff161415610ac7576040517f08c379a0000000000000000000000000000000000000000000000000000000008152600401610abe90612740565b60405180910390fd5b8060c00151421015610ef9576000600660003373ffffffffffffffffffffffffffffffffffffffff1673ffffffffffffffffffffffffffffffffffffffff16815260200190815260200160002060008481526020019081526020016000205490508034610b349190612884565b8260a00151108015610b5557508034610b4d9190612884565b826060015111155b610b94576040517f08c379a0000000000000000000000000000000000000000000000000000000008152600401610b8b90612640565b60405180910390fd5b816040015173ffffffffffffffffffffffffffffffffffffffff163373ffffffffffffffffffffffffffffffffffffffff161415610c07576040517f08c379a0000000000000000000000000000000000000000000000000000000008152600401610bfe90612720565b60405180910390fd5b3481610c139190612884565b600660003373ffffffffffffffffffffffffffffffffffffffff1673ffffffffffffffffffffffffffffffffffffffff168152602001908152602001600020600085815260200190815260200160002081905550600660003373ffffffffffffffffffffffffffffffffffffffff1673ffffffffffffffffffffffffffffffffffffffff1681526020019081526020016000206000848152602001908152602001600020549050808260a001818152505033826080019073ffffffffffffffffffffffffffffffffffffffff16908173ffffffffffffffffffffffffffffffffffffffff16815250506007600084815260200190815260200160002060405180606001604052803373ffffffffffffffffffffffffffffffffffffffff16815260200183815260200142815250908060018154018082558091505060019003906000526020600020906003020160009091909190915060008201518160000160006101000a81548173ffffffffffffffffffffffffffffffffffffffff021916908373ffffffffffffffffffffffffffffffffffffffff16021790555060208201518160010155604082015181600201555050816005600085815260200190815260200160002060008201518160000160006101000a81548160ff0219169083151502179055506020820151816001015560408201518160020160006101000a81548173ffffffffffffffffffffffffffffffffffffffff021916908373ffffffffffffffffffffffffffffffffffffffff1602179055506060820151816003015560808201518160040160006101000a81548173ffffffffffffffffffffffffffffffffffffffff021916908373ffffffffffffffffffffffffffffffffffffffff16021790555060a0820151816005015560c0820151816006015560e082015181600701556101008201518160080160006101000a81548160ff0219169083151502179055509050503460036000828254610ef09190612884565b92505081905550505b5050565b60035481565b60008211610f46576040517f08c379a0000000000000000000000000000000000000000000000000000000008152600401610f3d90612620565b60405180910390fd5b60016000815480929190610f5990612a29565b91905055508373ffffffffffffffffffffffffffffffffffffffff166323b872dd3330866040518463ffffffff1660e01b8152600401610f9b939291906125ae565b600060405180830381600087803b158015610fb557600080fd5b505af1158015610fc9573d6000803e3d6000fd5b50505050600181610fda919061290b565b90508042610fe89190612884565b905060405180610120016040528060011515815260200160015481526020013373ffffffffffffffffffffffffffffffffffffffff168152602001838152602001600073ffffffffffffffffffffffffffffffffffffffff168152602001600081526020018281526020014281526020016000151581525060056000600154815260200190815260200160002060008201518160000160006101000a81548160ff0219169083151502179055506020820151816001015560408201518160020160006101000a81548173ffffffffffffffffffffffffffffffffffffffff021916908373ffffffffffffffffffffffffffffffffffffffff1602179055506060820151816003015560808201518160040160006101000a81548173ffffffffffffffffffffffffffffffffffffffff021916908373ffffffffffffffffffffffffffffffffffffffff16021790555060a0820151816005015560c0820151816006015560e082015181600701556101008201518160080160006101000a81548160ff0219169083151502179055509050506040518060c0016040528060015481526020018573ffffffffffffffffffffffffffffffffffffffff1681526020018481526020018381526020013373ffffffffffffffffffffffffffffffffffffffff168152602001600015158152506002600060015481526020019081526020016000206000820151816000015560208201518160010160006101000a81548173ffffffffffffffffffffffffffffffffffffffff021916908373ffffffffffffffffffffffffffffffffffffffff160217905550604082015181600201556060820151816003015560808201518160040160006101000a81548173ffffffffffffffffffffffffffffffffffffffff021916908373ffffffffffffffffffffffffffffffffffffffff16021790555060a08201518160040160146101000a81548160ff02191690831515021790555090505050505050565b7f000000000000000000000000000000000000000000000000000000000000000081565b600060056000848152602001908152602001600020604051806101200160405290816000820160009054906101000a900460ff16151515158152602001600182015481526020016002820160009054906101000a900473ffffffffffffffffffffffffffffffffffffffff1673ffffffffffffffffffffffffffffffffffffffff1673ffffffffffffffffffffffffffffffffffffffff168152602001600382015481526020016004820160009054906101000a900473ffffffffffffffffffffffffffffffffffffffff1673ffffffffffffffffffffffffffffffffffffffff1673ffffffffffffffffffffffffffffffffffffffff1681526020016005820154815260200160068201548152602001600782015481526020016008820160009054906101000a900460ff16151515158152505090506005600084815260200190815260200160002060020160009054906101000a900473ffffffffffffffffffffffffffffffffffffffff1673ffffffffffffffffffffffffffffffffffffffff168273ffffffffffffffffffffffffffffffffffffffff1614806114ed57506005600084815260200190815260200160002060040160009054906101000a900473ffffffffffffffffffffffffffffffffffffffff1673ffffffffffffffffffffffffffffffffffffffff168273ffffffffffffffffffffffffffffffffffffffff16145b61152c576040517f08c379a0000000000000000000000000000000000000000000000000000000008152600401611523906127a0565b60405180910390fd5b428160c0015110611572576040517f08c379a000000000000000000000000000000000000000000000000000000000815260040161156990612660565b60405180910390fd5b600061157d84610710565b90508061158e5761158d84610423565b5b60006002600086815260200190815260200160002090508060010160009054906101000a900473ffffffffffffffffffffffffffffffffffffffff1673ffffffffffffffffffffffffffffffffffffffff166323b872dd303384600201546040518463ffffffff1660e01b815260040161160a939291906125ae565b600060405180830381600087803b15801561162457600080fd5b505af1158015611638573d6000803e3d6000fd5b5050505060018160040160146101000a81548160ff0219169083151502179055503373ffffffffffffffffffffffffffffffffffffffff168160040160009054906101000a900473ffffffffffffffffffffffffffffffffffffffff1673ffffffffffffffffffffffffffffffffffffffff168260010160009054906101000a900473ffffffffffffffffffffffffffffffffffffffff1673ffffffffffffffffffffffffffffffffffffffff167f8b4c9c8a607d67b321582dd8461041b1dc2ceeca70c8b7f37f8e02095cf2e76d88856002015486600301546040516117219392919061283c565b60405180910390a460066000846080015173ffffffffffffffffffffffffffffffffffffffff1673ffffffffffffffffffffffffffffffffffffffff168152602001908152602001600020600086815260200190815260200160002060009055600060018460a00151611794919061290b565b90503073ffffffffffffffffffffffffffffffffffffffff166108fc829081150290604051600060405180830381858888f193505050501580156117dc573d6000803e3d6000fd5b50600460008154809291906117f090612a29565b9190505550505050505050565b60015481565b6006602052816000526040600020602052806000526040600020600091509150505481565b7f000000000000000000000000000000000000000000000000000000000000000081565b6000600115156005600084815260200190815260200160002060000160009054906101000a900460ff1615151415611887576001905061188c565b600090505b919050565b60008060056000848152602001908152602001600020604051806101200160405290816000820160009054906101000a900460ff16151515158152602001600182015481526020016002820160009054906101000a900473ffffffffffffffffffffffffffffffffffffffff1673ffffffffffffffffffffffffffffffffffffffff1673ffffffffffffffffffffffffffffffffffffffff168152602001600382015481526020016004820160009054906101000a900473ffffffffffffffffffffffffffffffffffffffff1673ffffffffffffffffffffffffffffffffffffffff1673ffffffffffffffffffffffffffffffffffffffff1681526020016005820154815260200160068201548152602001600782015481526020016008820160009054906101000a900460ff16151515158152505090508060c00151915050919050565b60026020528060005260406000206000915090508060000154908060010160009054906101000a900473ffffffffffffffffffffffffffffffffffffffff16908060020154908060030154908060040160009054906101000a900473ffffffffffffffffffffffffffffffffffffffff16908060040160149054906101000a900460ff16905086565b600060647f00000000000000000000000000000000000000000000000000000000000000006064611a909190612884565b6002600085815260200190815260200160002060030154611ab1919061290b565b611abb91906128da565b9050919050565b60026000541415611b08576040517f08c379a0000000000000000000000000000000000000000000000000000000008152600401611aff90612780565b60405180910390fd5b6002600081905550600015156005600083815260200190815260200160002060000160009054906101000a900460ff16151514611b7a576040517f08c379a0000000000000000000000000000000000000000000000000000000008152600401611b71906126e0565b60405180910390fd5b6000611b8582611a5f565b90506000600260008481526020019081526020016000209050600083118015611bb057506001548311155b611bef576040517f08c379a0000000000000000000000000000000000000000000000000000000008152600401611be690612700565b60405180910390fd5b81341015611c32576040517f08c379a0000000000000000000000000000000000000000000000000000000008152600401611c2990612680565b60405180910390fd5b8060040160149054906101000a900460ff1615611c84576040517f08c379a0000000000000000000000000000000000000000000000000000000008152600401611c7b90612600565b60405180910390fd5b8060040160009054906101000a900473ffffffffffffffffffffffffffffffffffffffff1673ffffffffffffffffffffffffffffffffffffffff166108fc82600301549081150290604051600060405180830381858888f19350505050158015611cf2573d6000803e3d6000fd5b507f000000000000000000000000000000000000000000000000000000000000000073ffffffffffffffffffffffffffffffffffffffff166108fc826003015484611d3d9190612965565b9081150290604051600060405180830381858888f19350505050158015611d68573d6000803e3d6000fd5b5060018160040160146101000a81548160ff0219169083151502179055508060010160009054906101000a900473ffffffffffffffffffffffffffffffffffffffff1673ffffffffffffffffffffffffffffffffffffffff166323b872dd303384600201546040518463ffffffff1660e01b8152600401611deb939291906125ae565b600060405180830381600087803b158015611e0557600080fd5b505af1158015611e19573d6000803e3d6000fd5b505050503373ffffffffffffffffffffffffffffffffffffffff168160040160009054906101000a900473ffffffffffffffffffffffffffffffffffffffff1673ffffffffffffffffffffffffffffffffffffffff168260010160009054906101000a900473ffffffffffffffffffffffffffffffffffffffff1673ffffffffffffffffffffffffffffffffffffffff167f8b4c9c8a607d67b321582dd8461041b1dc2ceeca70c8b7f37f8e02095cf2e76d8685600201548660030154604051611ee59392919061283c565b60405180910390a45050600160008190555050565b60026000541415611f40576040517f08c379a0000000000000000000000000000000000000000000000000000000008152600401611f3790612780565b60405180910390fd5b600260008190555060008111611f8b576040517f08c379a0000000000000000000000000000000000000000000000000000000008152600401611f8290612620565b60405180910390fd5b60016000815480929190611f9e90612a29565b91905055508273ffffffffffffffffffffffffffffffffffffffff166323b872dd3330856040518463ffffffff1660e01b8152600401611fe0939291906125ae565b600060405180830381600087803b158015611ffa57600080fd5b505af115801561200e573d6000803e3d6000fd5b505050506040518060c0016040528060015481526020018473ffffffffffffffffffffffffffffffffffffffff1681526020018381526020018281526020013373ffffffffffffffffffffffffffffffffffffffff168152602001600015158152506002600060015481526020019081526020016000206000820151816000015560208201518160010160006101000a81548173ffffffffffffffffffffffffffffffffffffffff021916908373ffffffffffffffffffffffffffffffffffffffff160217905550604082015181600201556060820151816003015560808201518160040160006101000a81548173ffffffffffffffffffffffffffffffffffffffff021916908373ffffffffffffffffffffffffffffffffffffffff16021790555060a08201518160040160146101000a81548160ff0219169083151502179055509050503373ffffffffffffffffffffffffffffffffffffffff168373ffffffffffffffffffffffffffffffffffffffff167f655a0cf9c8db81512be9a76dc1c5ae5380b8816ce6ad659cd61b715e2999d59a60015485856040516121b79392919061283c565b60405180910390a36001600081905550505050565b6000813590506121db81612da6565b92915050565b6000813590506121f081612dbd565b92915050565b60008135905061220581612dd4565b92915050565b6000806040838503121561221e57600080fd5b600061222c858286016121cc565b925050602061223d858286016121f6565b9150509250929050565b60008060006060848603121561225c57600080fd5b600061226a868287016121e1565b935050602061227b868287016121f6565b925050604061228c868287016121f6565b9150509250925092565b600080600080608085870312156122ac57600080fd5b60006122ba878288016121e1565b94505060206122cb878288016121f6565b93505060406122dc878288016121f6565b92505060606122ed878288016121f6565b91505092959194509250565b60006020828403121561230b57600080fd5b6000612319848285016121f6565b91505092915050565b6000806040838503121561233557600080fd5b6000612343858286016121f6565b9250506020612354858286016121cc565b9150509250929050565b612367816129ab565b82525050565b61237681612999565b82525050565b612385816129bd565b82525050565b61239481612a05565b82525050565b60006123a7601183612873565b91506123b282612ad0565b602082019050919050565b60006123ca601f83612873565b91506123d582612af9565b602082019050919050565b60006123ed601683612873565b91506123f882612b22565b602082019050919050565b6000612410601683612873565b915061241b82612b4b565b602082019050919050565b6000612433603383612873565b915061243e82612b74565b604082019050919050565b6000612456601183612873565b915061246182612bc3565b602082019050919050565b6000612479601683612873565b915061248482612bec565b602082019050919050565b600061249c600f83612873565b91506124a782612c15565b602082019050919050565b60006124bf601283612873565b91506124ca82612c3e565b602082019050919050565b60006124e2602283612873565b91506124ed82612c67565b604082019050919050565b6000612505601683612873565b915061251082612cb6565b602082019050919050565b6000612528602783612873565b915061253382612cdf565b604082019050919050565b600061254b601f83612873565b915061255682612d2e565b602082019050919050565b600061256e602e83612873565b915061257982612d57565b604082019050919050565b61258d816129fb565b82525050565b60006020820190506125a8600083018461235e565b92915050565b60006060820190506125c3600083018661236d565b6125d0602083018561236d565b6125dd6040830184612584565b949350505050565b60006020820190506125fa600083018461237c565b92915050565b600060208201905081810360008301526126198161239a565b9050919050565b60006020820190508181036000830152612639816123bd565b9050919050565b60006020820190508181036000830152612659816123e0565b9050919050565b6000602082019050818103600083015261267981612403565b9050919050565b6000602082019050818103600083015261269981612426565b9050919050565b600060208201905081810360008301526126b981612449565b9050919050565b600060208201905081810360008301526126d98161246c565b9050919050565b600060208201905081810360008301526126f98161248f565b9050919050565b60006020820190508181036000830152612719816124b2565b9050919050565b60006020820190508181036000830152612739816124d5565b9050919050565b60006020820190508181036000830152612759816124f8565b9050919050565b600060208201905081810360008301526127798161251b565b9050919050565b600060208201905081810360008301526127998161253e565b9050919050565b600060208201905081810360008301526127b981612561565b9050919050565b60006020820190506127d56000830184612584565b92915050565b600060c0820190506127f06000830189612584565b6127fd602083018861238b565b61280a6040830187612584565b6128176060830186612584565b612824608083018561235e565b61283160a083018461237c565b979650505050505050565b60006060820190506128516000830186612584565b61285e6020830185612584565b61286b6040830184612584565b949350505050565b600082825260208201905092915050565b600061288f826129fb565b915061289a836129fb565b9250827fffffffffffffffffffffffffffffffffffffffffffffffffffffffffffffffff038211156128cf576128ce612a72565b5b828201905092915050565b60006128e5826129fb565b91506128f0836129fb565b925082612900576128ff612aa1565b5b828204905092915050565b6000612916826129fb565b9150612921836129fb565b9250817fffffffffffffffffffffffffffffffffffffffffffffffffffffffffffffffff048311821515161561295a57612959612a72565b5b828202905092915050565b6000612970826129fb565b915061297b836129fb565b92508282101561298e5761298d612a72565b5b828203905092915050565b60006129a4826129db565b9050919050565b60006129b6826129db565b9050919050565b60008115159050919050565b60006129d482612999565b9050919050565b600073ffffffffffffffffffffffffffffffffffffffff82169050919050565b6000819050919050565b6000612a1082612a17565b9050919050565b6000612a22826129db565b9050919050565b6000612a34826129fb565b91507fffffffffffffffffffffffffffffffffffffffffffffffffffffffffffffffff821415612a6757612a66612a72565b5b600182019050919050565b7f4e487b7100000000000000000000000000000000000000000000000000000000600052601160045260246000fd5b7f4e487b7100000000000000000000000000000000000000000000000000000000600052601260045260246000fd5b7f6974656d20616c726561647920736f6c64000000000000000000000000000000600082015250565b7f5072696365206d7573742062652067726561746572207468616e207a65726f00600082015250565b7f506c656173652073656e64206d6f72652066756e647300000000000000000000600082015250565b7f41756374696f6e2054696d652072656d61696e696e6700000000000000000000600082015250565b7f6e6f7420656e6f75676820657468657220746f20636f766572206974656d207060008201527f7269636520616e64206d61726b65742066656500000000000000000000000000602082015250565b7f41756374696f6e2068617320656e646564000000000000000000000000000000600082015250565b7f546869732061756374696f6e2068617320456e64656400000000000000000000600082015250565b7f41756374696f6e204e6f7420456e640000000000000000000000000000000000600082015250565b7f6974656d20646f65736e27742065786973740000000000000000000000000000600082015250565b7f596f752063616e6e6f742062696420696e20796f7572206f776e20617563746960008201527f6f6e000000000000000000000000000000000000000000000000000000000000602082015250565b7f41756374696f6e20646f6573206e6f7420657869737400000000000000000000600082015250565b7f41756374696f6e20666f722074686973204e4654206973206e6f7420696e207060008201527f726f677265737300000000000000000000000000000000000000000000000000602082015250565b7f5265656e7472616e637947756172643a207265656e7472616e742063616c6c00600082015250565b7f596f7520617265206e6f7420617574686f72697a656420746f20636f6e636c7560008201527f6465207468652061756374696f6e000000000000000000000000000000000000602082015250565b612daf81612999565b8114612dba57600080fd5b50565b612dc6816129c9565b8114612dd157600080fd5b50565b612ddd816129fb565b8114612de857600080fd5b5056fea2646970667358221220f5ffa68cfb5a2437bb7e747a95b644f33a4d07a9f10a1cc547915f52577c893a64736f6c63430008040033",
  "linkReferences": {},
  "deployedLinkReferences": {}
}