{
  "_format": "hh-sol-artifact-1",
  "contractName": "Marketplace",
  "sourceName": "src/backend/contracts/Marketplace.sol",
  "abi": [
    {
      "inputs": [
        {
          "internalType": "uint256",
          "name": "_feePercent",
          "type": "uint256"
        }
      ],
      "stateMutability": "nonpayable",
      "type": "constructor"
    },
    {
      "anonymous": false,
      "inputs": [
        {
          "indexed": false,
          "internalType": "uint256",
          "name": "itemId",
          "type": "uint256"
        },
        {
          "indexed": true,
          "internalType": "address",
          "name": "nft",
          "type": "address"
        },
        {
          "indexed": false,
          "internalType": "uint256",
          "name": "tokenId",
          "type": "uint256"
        },
        {
          "indexed": false,
          "internalType": "uint256",
          "name": "price",
          "type": "uint256"
        },
        {
          "indexed": true,
          "internalType": "address",
          "name": "seller",
          "type": "address"
        },
        {
          "indexed": true,
          "internalType": "address",
          "name": "buyer",
          "type": "address"
        }
      ],
      "name": "Bought",
      "type": "event"
    },
    {
      "anonymous": false,
      "inputs": [
        {
          "indexed": false,
          "internalType": "uint256",
          "name": "itemId",
          "type": "uint256"
        },
        {
          "indexed": true,
          "internalType": "address",
          "name": "nft",
          "type": "address"
        },
        {
          "indexed": false,
          "internalType": "uint256",
          "name": "tokenId",
          "type": "uint256"
        },
        {
          "indexed": false,
          "internalType": "uint256",
          "name": "price",
          "type": "uint256"
        },
        {
          "indexed": true,
          "internalType": "address",
          "name": "seller",
          "type": "address"
        }
      ],
      "name": "Offered",
      "type": "event"
    },
    {
      "stateMutability": "payable",
      "type": "fallback"
    },
    {
      "inputs": [
        {
          "internalType": "uint256",
          "name": "itemId",
          "type": "uint256"
        }
      ],
      "name": "_checkAuctionStatus",
      "outputs": [
        {
          "internalType": "bool",
          "name": "",
          "type": "bool"
        }
      ],
      "stateMutability": "view",
      "type": "function"
    },
    {
      "inputs": [
        {
          "internalType": "uint256",
          "name": "itemId",
          "type": "uint256"
        }
      ],
      "name": "_updateStatus",
      "outputs": [],
      "stateMutability": "nonpayable",
      "type": "function"
    },
    {
      "inputs": [
        {
          "internalType": "uint256",
          "name": "itemId",
          "type": "uint256"
        }
      ],
      "name": "bid",
      "outputs": [],
      "stateMutability": "payable",
      "type": "function"
    },
    {
      "inputs": [
        {
          "internalType": "uint256",
          "name": "itemId",
          "type": "uint256"
        }
      ],
      "name": "cancelListing",
      "outputs": [],
      "stateMutability": "nonpayable",
      "type": "function"
    },
    {
      "inputs": [
        {
          "internalType": "uint256",
          "name": "itemId",
          "type": "uint256"
        },
        {
          "internalType": "address",
          "name": "_msgSender",
          "type": "address"
        }
      ],
      "name": "concludeAuction",
      "outputs": [],
      "stateMutability": "payable",
      "type": "function"
    },
    {
      "inputs": [
        {
          "internalType": "contract IERC721",
          "name": "_nft",
          "type": "address"
        },
        {
          "internalType": "uint256",
          "name": "_tokenId",
          "type": "uint256"
        },
        {
          "internalType": "uint256",
          "name": "_basePrice",
          "type": "uint256"
        },
        {
          "internalType": "uint256",
          "name": "endTime",
          "type": "uint256"
        }
      ],
      "name": "createAuction",
      "outputs": [],
      "stateMutability": "nonpayable",
      "type": "function"
    },
    {
      "inputs": [],
      "name": "feeAccount",
      "outputs": [
        {
          "internalType": "address payable",
          "name": "",
          "type": "address"
        }
      ],
      "stateMutability": "view",
      "type": "function"
    },
    {
      "inputs": [],
      "name": "feePercent",
      "outputs": [
        {
          "internalType": "uint256",
          "name": "",
          "type": "uint256"
        }
      ],
      "stateMutability": "view",
      "type": "function"
    },
    {
      "inputs": [
        {
          "internalType": "uint256",
          "name": "itemId",
          "type": "uint256"
        }
      ],
      "name": "getLastTime",
      "outputs": [
        {
          "internalType": "uint256",
          "name": "",
          "type": "uint256"
        }
      ],
      "stateMutability": "view",
      "type": "function"
    },
    {
      "inputs": [
        {
          "internalType": "address",
          "name": "account",
          "type": "address"
        }
      ],
      "name": "getPendingReturns",
      "outputs": [
        {
          "internalType": "uint256",
          "name": "",
          "type": "uint256"
        }
      ],
      "stateMutability": "view",
      "type": "function"
    },
    {
      "inputs": [
        {
          "internalType": "uint256",
          "name": "_itemId",
          "type": "uint256"
        }
      ],
      "name": "getTotalPrice",
      "outputs": [
        {
          "internalType": "uint256",
          "name": "",
          "type": "uint256"
        }
      ],
      "stateMutability": "view",
      "type": "function"
    },
    {
      "inputs": [
        {
          "internalType": "uint256",
          "name": "itemId",
          "type": "uint256"
        }
      ],
      "name": "isAuction",
      "outputs": [
        {
          "internalType": "bool",
          "name": "",
          "type": "bool"
        }
      ],
      "stateMutability": "view",
      "type": "function"
    },
    {
      "inputs": [],
      "name": "itemCount",
      "outputs": [
        {
          "internalType": "uint256",
          "name": "",
          "type": "uint256"
        }
      ],
      "stateMutability": "view",
      "type": "function"
    },
    {
      "inputs": [
        {
          "internalType": "uint256",
          "name": "",
          "type": "uint256"
        }
      ],
      "name": "items",
      "outputs": [
        {
          "internalType": "uint256",
          "name": "itemId",
          "type": "uint256"
        },
        {
          "internalType": "contract IERC721",
          "name": "nft",
          "type": "address"
        },
        {
          "internalType": "uint256",
          "name": "tokenId",
          "type": "uint256"
        },
        {
          "internalType": "uint256",
          "name": "price",
          "type": "uint256"
        },
        {
          "internalType": "address payable",
          "name": "seller",
          "type": "address"
        },
        {
          "internalType": "bool",
          "name": "sold",
          "type": "bool"
        }
      ],
      "stateMutability": "view",
      "type": "function"
    },
    {
      "inputs": [
        {
          "internalType": "contract IERC721",
          "name": "_nft",
          "type": "address"
        },
        {
          "internalType": "uint256",
          "name": "_tokenId",
          "type": "uint256"
        },
        {
          "internalType": "uint256",
          "name": "_price",
          "type": "uint256"
        }
      ],
      "name": "makeItem",
      "outputs": [],
      "stateMutability": "nonpayable",
      "type": "function"
    },
    {
      "inputs": [
        {
          "internalType": "address",
          "name": "",
          "type": "address"
        },
        {
          "internalType": "uint256",
          "name": "",
          "type": "uint256"
        }
      ],
      "name": "payedBids",
      "outputs": [
        {
          "internalType": "uint256",
          "name": "",
          "type": "uint256"
        }
      ],
      "stateMutability": "view",
      "type": "function"
    },
    {
      "inputs": [
        {
          "internalType": "uint256",
          "name": "_itemId",
          "type": "uint256"
        }
      ],
      "name": "purchaseItem",
      "outputs": [],
      "stateMutability": "payable",
      "type": "function"
    },
    {
      "inputs": [],
      "name": "totalAuctionCompleted",
      "outputs": [
        {
          "internalType": "uint256",
          "name": "",
          "type": "uint256"
        }
      ],
      "stateMutability": "view",
      "type": "function"
    },
    {
      "inputs": [],
      "name": "totalVolume",
      "outputs": [
        {
          "internalType": "uint256",
          "name": "",
          "type": "uint256"
        }
      ],
      "stateMutability": "view",
      "type": "function"
    },
    {
      "inputs": [
        {
          "internalType": "address payable",
          "name": "account",
          "type": "address"
        }
      ],
      "name": "withdraw",
      "outputs": [],
      "stateMutability": "payable",
      "type": "function"
    },
    {
      "stateMutability": "payable",
      "type": "receive"
    }
  ],
  "bytecode": "0x60c06040523480156200001157600080fd5b50604051620038803803806200388083398181016040528101906200003791906200009c565b60016000819055503373ffffffffffffffffffffffffffffffffffffffff1660808173ffffffffffffffffffffffffffffffffffffffff1660601b815250508060a0818152505050620000ec565b6000815190506200009681620000d2565b92915050565b600060208284031215620000af57600080fd5b6000620000bf8482850162000085565b91505092915050565b6000819050919050565b620000dd81620000c8565b8114620000e957600080fd5b50565b60805160601c60a05161375d6200012360003960008181611b8f0152611e1301526000818161162801526120a3015261375d6000f3fe6080604052600436106101225760003560e01c80636bfb0d01116100a0578063bbc215c311610064578063bbc215c3146103c5578063bfb231d214610402578063ca7dd37514610444578063d38ea5bf14610481578063fa00afc71461049d57610129565b80636bfb0d01146102b85780637bce3b1b146102e35780637fd6f15c1461032057806383ffda3b1461034b5780638704f2a31461038857610129565b806351cff8d9116100e757806351cff8d9146102015780635f81a57c1461021d57806361beb1d71461024857806365e17c9d146102715780636bf774a71461029c57610129565b80623db6d21461012b5780632212c6941461015457806327fabf7714610191578063305a67a8146101bc578063454a2ab3146101e557610129565b3661012957005b005b34801561013757600080fd5b50610152600480360381019061014d9190612aca565b6104c6565b005b34801561016057600080fd5b5061017b60048036038101906101769190612aca565b6107bc565b6040516101889190612e42565b60405180910390f35b34801561019d57600080fd5b506101a6610976565b6040516101b3919061305d565b60405180910390f35b3480156101c857600080fd5b506101e360048036038101906101de9190612aca565b61097c565b005b6101ff60048036038101906101fa9190612aca565b610b57565b005b61021b600480360381019061021691906129b3565b611184565b005b34801561022957600080fd5b50610232611262565b60405161023f919061305d565b60405180910390f35b34801561025457600080fd5b5061026f600480360381019061026a9190612a67565b611268565b005b34801561027d57600080fd5b50610286611626565b6040516102939190612db9565b60405180910390f35b6102b660048036038101906102b19190612af3565b61164a565b005b3480156102c457600080fd5b506102cd611b62565b6040516102da919061305d565b60405180910390f35b3480156102ef57600080fd5b5061030a600480360381019061030591906129dc565b611b68565b604051610317919061305d565b60405180910390f35b34801561032c57600080fd5b50610335611b8d565b604051610342919061305d565b60405180910390f35b34801561035757600080fd5b50610372600480360381019061036d919061298a565b611bb1565b60405161037f919061305d565b60405180910390f35b34801561039457600080fd5b506103af60048036038101906103aa9190612aca565b611bfa565b6040516103bc9190612e42565b60405180910390f35b3480156103d157600080fd5b506103ec60048036038101906103e79190612aca565b611c3f565b6040516103f9919061305d565b60405180910390f35b34801561040e57600080fd5b5061042960048036038101906104249190612aca565b611d84565b60405161043b96959493929190613078565b60405180910390f35b34801561045057600080fd5b5061046b60048036038101906104669190612aca565b611e0d565b604051610478919061305d565b60405180910390f35b61049b60048036038101906104969190612aca565b611e70565b005b3480156104a957600080fd5b506104c460048036038101906104bf9190612a18565b6122a8565b005b600060056000838152602001908152602001600020604051806101200160405290816000820160009054906101000a900460ff16151515158152602001600182015481526020016002820160009054906101000a900473ffffffffffffffffffffffffffffffffffffffff1673ffffffffffffffffffffffffffffffffffffffff1673ffffffffffffffffffffffffffffffffffffffff168152602001600382015481526020016004820160009054906101000a900473ffffffffffffffffffffffffffffffffffffffff1673ffffffffffffffffffffffffffffffffffffffff1673ffffffffffffffffffffffffffffffffffffffff1681526020016005820154815260200160068201548152602001600782015481526020016008820160009054906101000a900460ff161515151581525050905060001515816101000151151514610649576040517f08c379a000000000000000000000000000000000000000000000000000000000815260040161064090612f1d565b60405180910390fd5b8060c00151421115610671576001816101000190151590811515815250506106708261257a565b5b806005600084815260200190815260200160002060008201518160000160006101000a81548160ff0219169083151502179055506020820151816001015560408201518160020160006101000a81548173ffffffffffffffffffffffffffffffffffffffff021916908373ffffffffffffffffffffffffffffffffffffffff1602179055506060820151816003015560808201518160040160006101000a81548173ffffffffffffffffffffffffffffffffffffffff021916908373ffffffffffffffffffffffffffffffffffffffff16021790555060a0820151816005015560c0820151816006015560e082015181600701556101008201518160080160006101000a81548160ff02191690831515021790555090505060006005600084815260200190815260200160002060000160006101000a81548160ff0219169083151502179055505050565b60008060056000848152602001908152602001600020604051806101200160405290816000820160009054906101000a900460ff16151515158152602001600182015481526020016002820160009054906101000a900473ffffffffffffffffffffffffffffffffffffffff1673ffffffffffffffffffffffffffffffffffffffff1673ffffffffffffffffffffffffffffffffffffffff168152602001600382015481526020016004820160009054906101000a900473ffffffffffffffffffffffffffffffffffffffff1673ffffffffffffffffffffffffffffffffffffffff1673ffffffffffffffffffffffffffffffffffffffff1681526020016005820154815260200160068201548152602001600782015481526020016008820160009054906101000a900460ff1615151515815250509050600073ffffffffffffffffffffffffffffffffffffffff16816040015173ffffffffffffffffffffffffffffffffffffffff161415610968576040517f08c379a000000000000000000000000000000000000000000000000000000000815260040161095f90612fdd565b60405180910390fd5b806101000151915050919050565b60045481565b600260005414156109c2576040517f08c379a00000000000000000000000000000000000000000000000000000000081526004016109b99061301d565b60405180910390fd5b600260008190555060006002600083815260200190815260200160002090503373ffffffffffffffffffffffffffffffffffffffff168160040160009054906101000a900473ffffffffffffffffffffffffffffffffffffffff1673ffffffffffffffffffffffffffffffffffffffff1614610a73576040517f08c379a0000000000000000000000000000000000000000000000000000000008152600401610a6a90612ffd565b60405180910390fd5b8060010160009054906101000a900473ffffffffffffffffffffffffffffffffffffffff1673ffffffffffffffffffffffffffffffffffffffff166323b872dd308360040160009054906101000a900473ffffffffffffffffffffffffffffffffffffffff1684600201546040518463ffffffff1660e01b8152600401610afc93929190612dd4565b600060405180830381600087803b158015610b1657600080fd5b505af1158015610b2a573d6000803e3d6000fd5b5050505060018160040160146101000a81548160ff02191690831515021790555050600160008190555050565b600060056000838152602001908152602001600020604051806101200160405290816000820160009054906101000a900460ff16151515158152602001600182015481526020016002820160009054906101000a900473ffffffffffffffffffffffffffffffffffffffff1673ffffffffffffffffffffffffffffffffffffffff1673ffffffffffffffffffffffffffffffffffffffff168152602001600382015481526020016004820160009054906101000a900473ffffffffffffffffffffffffffffffffffffffff1673ffffffffffffffffffffffffffffffffffffffff1673ffffffffffffffffffffffffffffffffffffffff1681526020016005820154815260200160068201548152602001600782015481526020016008820160009054906101000a900460ff161515151581525050905060001515816101000151151514610cda576040517f08c379a0000000000000000000000000000000000000000000000000000000008152600401610cd190612efd565b60405180910390fd5b600073ffffffffffffffffffffffffffffffffffffffff16816040015173ffffffffffffffffffffffffffffffffffffffff161415610d4e576040517f08c379a0000000000000000000000000000000000000000000000000000000008152600401610d4590612f9d565b60405180910390fd5b8060c00151421015611180576000600660003373ffffffffffffffffffffffffffffffffffffffff1673ffffffffffffffffffffffffffffffffffffffff16815260200190815260200160002060008481526020019081526020016000205490508034610dbb9190613121565b8260a00151108015610ddc57508034610dd49190613121565b826060015111155b610e1b576040517f08c379a0000000000000000000000000000000000000000000000000000000008152600401610e1290612e9d565b60405180910390fd5b816040015173ffffffffffffffffffffffffffffffffffffffff163373ffffffffffffffffffffffffffffffffffffffff161415610e8e576040517f08c379a0000000000000000000000000000000000000000000000000000000008152600401610e8590612f7d565b60405180910390fd5b3481610e9a9190613121565b600660003373ffffffffffffffffffffffffffffffffffffffff1673ffffffffffffffffffffffffffffffffffffffff168152602001908152602001600020600085815260200190815260200160002081905550600660003373ffffffffffffffffffffffffffffffffffffffff1673ffffffffffffffffffffffffffffffffffffffff1681526020019081526020016000206000848152602001908152602001600020549050808260a001818152505033826080019073ffffffffffffffffffffffffffffffffffffffff16908173ffffffffffffffffffffffffffffffffffffffff16815250506007600084815260200190815260200160002060405180606001604052803373ffffffffffffffffffffffffffffffffffffffff16815260200183815260200142815250908060018154018082558091505060019003906000526020600020906003020160009091909190915060008201518160000160006101000a81548173ffffffffffffffffffffffffffffffffffffffff021916908373ffffffffffffffffffffffffffffffffffffffff16021790555060208201518160010155604082015181600201555050816005600085815260200190815260200160002060008201518160000160006101000a81548160ff0219169083151502179055506020820151816001015560408201518160020160006101000a81548173ffffffffffffffffffffffffffffffffffffffff021916908373ffffffffffffffffffffffffffffffffffffffff1602179055506060820151816003015560808201518160040160006101000a81548173ffffffffffffffffffffffffffffffffffffffff021916908373ffffffffffffffffffffffffffffffffffffffff16021790555060a0820151816005015560c0820151816006015560e082015181600701556101008201518160080160006101000a81548160ff02191690831515021790555090505034600360008282546111779190613121565b92505081905550505b5050565b600061118f82611bb1565b9050600081116111d4576040517f08c379a00000000000000000000000000000000000000000000000000000000081526004016111cb90612fbd565b60405180910390fd5b8173ffffffffffffffffffffffffffffffffffffffff166108fc829081150290604051600060405180830381858888f1935050505015801561121a573d6000803e3d6000fd5b50600860008373ffffffffffffffffffffffffffffffffffffffff1673ffffffffffffffffffffffffffffffffffffffff168152602001908152602001600020600090555050565b60035481565b600082116112ab576040517f08c379a00000000000000000000000000000000000000000000000000000000081526004016112a290612e7d565b60405180910390fd5b600160008154809291906112be906132fc565b91905055508373ffffffffffffffffffffffffffffffffffffffff166323b872dd3330866040518463ffffffff1660e01b815260040161130093929190612e0b565b600060405180830381600087803b15801561131a57600080fd5b505af115801561132e573d6000803e3d6000fd5b5050505060018161133f91906131a8565b9050804261134d9190613121565b905060405180610120016040528060011515815260200160015481526020013373ffffffffffffffffffffffffffffffffffffffff168152602001838152602001600073ffffffffffffffffffffffffffffffffffffffff168152602001600081526020018281526020014281526020016000151581525060056000600154815260200190815260200160002060008201518160000160006101000a81548160ff0219169083151502179055506020820151816001015560408201518160020160006101000a81548173ffffffffffffffffffffffffffffffffffffffff021916908373ffffffffffffffffffffffffffffffffffffffff1602179055506060820151816003015560808201518160040160006101000a81548173ffffffffffffffffffffffffffffffffffffffff021916908373ffffffffffffffffffffffffffffffffffffffff16021790555060a0820151816005015560c0820151816006015560e082015181600701556101008201518160080160006101000a81548160ff0219169083151502179055509050506040518060c0016040528060015481526020018573ffffffffffffffffffffffffffffffffffffffff1681526020018481526020018381526020013373ffffffffffffffffffffffffffffffffffffffff168152602001600015158152506002600060015481526020019081526020016000206000820151816000015560208201518160010160006101000a81548173ffffffffffffffffffffffffffffffffffffffff021916908373ffffffffffffffffffffffffffffffffffffffff160217905550604082015181600201556060820151816003015560808201518160040160006101000a81548173ffffffffffffffffffffffffffffffffffffffff021916908373ffffffffffffffffffffffffffffffffffffffff16021790555060a08201518160040160146101000a81548160ff02191690831515021790555090505050505050565b7f000000000000000000000000000000000000000000000000000000000000000081565b600060056000848152602001908152602001600020604051806101200160405290816000820160009054906101000a900460ff16151515158152602001600182015481526020016002820160009054906101000a900473ffffffffffffffffffffffffffffffffffffffff1673ffffffffffffffffffffffffffffffffffffffff1673ffffffffffffffffffffffffffffffffffffffff168152602001600382015481526020016004820160009054906101000a900473ffffffffffffffffffffffffffffffffffffffff1673ffffffffffffffffffffffffffffffffffffffff1673ffffffffffffffffffffffffffffffffffffffff1681526020016005820154815260200160068201548152602001600782015481526020016008820160009054906101000a900460ff16151515158152505090506005600084815260200190815260200160002060020160009054906101000a900473ffffffffffffffffffffffffffffffffffffffff1673ffffffffffffffffffffffffffffffffffffffff168273ffffffffffffffffffffffffffffffffffffffff16148061185257506005600084815260200190815260200160002060040160009054906101000a900473ffffffffffffffffffffffffffffffffffffffff1673ffffffffffffffffffffffffffffffffffffffff168273ffffffffffffffffffffffffffffffffffffffff16145b611891576040517f08c379a00000000000000000000000000000000000000000000000000000000081526004016118889061303d565b60405180910390fd5b428160c00151106118d7576040517f08c379a00000000000000000000000000000000000000000000000000000000081526004016118ce90612ebd565b60405180910390fd5b60006118e2846107bc565b9050806118f3576118f2846104c6565b5b60006002600086815260200190815260200160002090508060010160009054906101000a900473ffffffffffffffffffffffffffffffffffffffff1673ffffffffffffffffffffffffffffffffffffffff166323b872dd303384600201546040518463ffffffff1660e01b815260040161196f93929190612e0b565b600060405180830381600087803b15801561198957600080fd5b505af115801561199d573d6000803e3d6000fd5b5050505060018160040160146101000a81548160ff0219169083151502179055503373ffffffffffffffffffffffffffffffffffffffff168160040160009054906101000a900473ffffffffffffffffffffffffffffffffffffffff1673ffffffffffffffffffffffffffffffffffffffff168260010160009054906101000a900473ffffffffffffffffffffffffffffffffffffffff1673ffffffffffffffffffffffffffffffffffffffff167f8b4c9c8a607d67b321582dd8461041b1dc2ceeca70c8b7f37f8e02095cf2e76d8885600201548660030154604051611a86939291906130d9565b60405180910390a460066000846080015173ffffffffffffffffffffffffffffffffffffffff1673ffffffffffffffffffffffffffffffffffffffff168152602001908152602001600020600086815260200190815260200160002060009055600060018460a00151611af991906131a8565b90503073ffffffffffffffffffffffffffffffffffffffff166108fc829081150290604051600060405180830381858888f19350505050158015611b41573d6000803e3d6000fd5b5060046000815480929190611b55906132fc565b9190505550505050505050565b60015481565b6006602052816000526040600020602052806000526040600020600091509150505481565b7f000000000000000000000000000000000000000000000000000000000000000081565b6000600860008373ffffffffffffffffffffffffffffffffffffffff1673ffffffffffffffffffffffffffffffffffffffff168152602001908152602001600020549050919050565b6000600115156005600084815260200190815260200160002060000160009054906101000a900460ff1615151415611c355760019050611c3a565b600090505b919050565b60008060056000848152602001908152602001600020604051806101200160405290816000820160009054906101000a900460ff16151515158152602001600182015481526020016002820160009054906101000a900473ffffffffffffffffffffffffffffffffffffffff1673ffffffffffffffffffffffffffffffffffffffff1673ffffffffffffffffffffffffffffffffffffffff168152602001600382015481526020016004820160009054906101000a900473ffffffffffffffffffffffffffffffffffffffff1673ffffffffffffffffffffffffffffffffffffffff1673ffffffffffffffffffffffffffffffffffffffff1681526020016005820154815260200160068201548152602001600782015481526020016008820160009054906101000a900460ff16151515158152505090508060c00151915050919050565b60026020528060005260406000206000915090508060000154908060010160009054906101000a900473ffffffffffffffffffffffffffffffffffffffff16908060020154908060030154908060040160009054906101000a900473ffffffffffffffffffffffffffffffffffffffff16908060040160149054906101000a900460ff16905086565b600060647f00000000000000000000000000000000000000000000000000000000000000006064611e3e9190613121565b6002600085815260200190815260200160002060030154611e5f91906131a8565b611e699190613177565b9050919050565b60026000541415611eb6576040517f08c379a0000000000000000000000000000000000000000000000000000000008152600401611ead9061301d565b60405180910390fd5b6002600081905550600015156005600083815260200190815260200160002060000160009054906101000a900460ff16151514611f28576040517f08c379a0000000000000000000000000000000000000000000000000000000008152600401611f1f90612f3d565b60405180910390fd5b6000611f3382611e0d565b90506000600260008481526020019081526020016000209050600083118015611f5e57506001548311155b611f9d576040517f08c379a0000000000000000000000000000000000000000000000000000000008152600401611f9490612f5d565b60405180910390fd5b81341015611fe0576040517f08c379a0000000000000000000000000000000000000000000000000000000008152600401611fd790612edd565b60405180910390fd5b8060040160149054906101000a900460ff1615612032576040517f08c379a000000000000000000000000000000000000000000000000000000000815260040161202990612e5d565b60405180910390fd5b8060040160009054906101000a900473ffffffffffffffffffffffffffffffffffffffff1673ffffffffffffffffffffffffffffffffffffffff166108fc82600301549081150290604051600060405180830381858888f193505050501580156120a0573d6000803e3d6000fd5b507f000000000000000000000000000000000000000000000000000000000000000073ffffffffffffffffffffffffffffffffffffffff166108fc8260030154846120eb9190613202565b9081150290604051600060405180830381858888f19350505050158015612116573d6000803e3d6000fd5b5060018160040160146101000a81548160ff0219169083151502179055508060010160009054906101000a900473ffffffffffffffffffffffffffffffffffffffff1673ffffffffffffffffffffffffffffffffffffffff166323b872dd303384600201546040518463ffffffff1660e01b815260040161219993929190612e0b565b600060405180830381600087803b1580156121b357600080fd5b505af11580156121c7573d6000803e3d6000fd5b505050503373ffffffffffffffffffffffffffffffffffffffff168160040160009054906101000a900473ffffffffffffffffffffffffffffffffffffffff1673ffffffffffffffffffffffffffffffffffffffff168260010160009054906101000a900473ffffffffffffffffffffffffffffffffffffffff1673ffffffffffffffffffffffffffffffffffffffff167f8b4c9c8a607d67b321582dd8461041b1dc2ceeca70c8b7f37f8e02095cf2e76d8685600201548660030154604051612293939291906130d9565b60405180910390a45050600160008190555050565b600260005414156122ee576040517f08c379a00000000000000000000000000000000000000000000000000000000081526004016122e59061301d565b60405180910390fd5b600260008190555060008111612339576040517f08c379a000000000000000000000000000000000000000000000000000000000815260040161233090612e7d565b60405180910390fd5b6001600081548092919061234c906132fc565b91905055508273ffffffffffffffffffffffffffffffffffffffff166323b872dd3330856040518463ffffffff1660e01b815260040161238e93929190612e0b565b600060405180830381600087803b1580156123a857600080fd5b505af11580156123bc573d6000803e3d6000fd5b505050506040518060c0016040528060015481526020018473ffffffffffffffffffffffffffffffffffffffff1681526020018381526020018281526020013373ffffffffffffffffffffffffffffffffffffffff168152602001600015158152506002600060015481526020019081526020016000206000820151816000015560208201518160010160006101000a81548173ffffffffffffffffffffffffffffffffffffffff021916908373ffffffffffffffffffffffffffffffffffffffff160217905550604082015181600201556060820151816003015560808201518160040160006101000a81548173ffffffffffffffffffffffffffffffffffffffff021916908373ffffffffffffffffffffffffffffffffffffffff16021790555060a08201518160040160146101000a81548160ff0219169083151502179055509050503373ffffffffffffffffffffffffffffffffffffffff168373ffffffffffffffffffffffffffffffffffffffff167f655a0cf9c8db81512be9a76dc1c5ae5380b8816ce6ad659cd61b715e2999d59a6001548585604051612565939291906130d9565b60405180910390a36001600081905550505050565b600060076000838152602001908152602001600020805480602002602001604051908101604052809291908181526020016000905b8282101561264b57838290600052602060002090600302016040518060600160405290816000820160009054906101000a900473ffffffffffffffffffffffffffffffffffffffff1673ffffffffffffffffffffffffffffffffffffffff1673ffffffffffffffffffffffffffffffffffffffff16815260200160018201548152602001600282015481525050815260200190600101906125af565b505050509050600060056000848152602001908152602001600020604051806101200160405290816000820160009054906101000a900460ff16151515158152602001600182015481526020016002820160009054906101000a900473ffffffffffffffffffffffffffffffffffffffff1673ffffffffffffffffffffffffffffffffffffffff1673ffffffffffffffffffffffffffffffffffffffff168152602001600382015481526020016004820160009054906101000a900473ffffffffffffffffffffffffffffffffffffffff1673ffffffffffffffffffffffffffffffffffffffff1673ffffffffffffffffffffffffffffffffffffffff1681526020016005820154815260200160068201548152602001600782015481526020016008820160009054906101000a900460ff161515151581525050905060005b600183516127999190613202565b8111612930578160a001518382815181106127dd577f4e487b7100000000000000000000000000000000000000000000000000000000600052603260045260246000fd5b6020026020010151602001511461291d576006600084838151811061282b577f4e487b7100000000000000000000000000000000000000000000000000000000600052603260045260246000fd5b60200260200101516000015173ffffffffffffffffffffffffffffffffffffffff1673ffffffffffffffffffffffffffffffffffffffff168152602001908152602001600020600085815260200190815260200160002054600860008584815181106128c0577f4e487b7100000000000000000000000000000000000000000000000000000000600052603260045260246000fd5b60200260200101516000015173ffffffffffffffffffffffffffffffffffffffff1673ffffffffffffffffffffffffffffffffffffffff16815260200190815260200160002060008282546129159190613121565b925050819055505b8080612928906132fc565b91505061278b565b50505050565b600081359050612945816136cb565b92915050565b60008135905061295a816136e2565b92915050565b60008135905061296f816136f9565b92915050565b60008135905061298481613710565b92915050565b60006020828403121561299c57600080fd5b60006129aa84828501612936565b91505092915050565b6000602082840312156129c557600080fd5b60006129d38482850161294b565b91505092915050565b600080604083850312156129ef57600080fd5b60006129fd85828601612936565b9250506020612a0e85828601612975565b9150509250929050565b600080600060608486031215612a2d57600080fd5b6000612a3b86828701612960565b9350506020612a4c86828701612975565b9250506040612a5d86828701612975565b9150509250925092565b60008060008060808587031215612a7d57600080fd5b6000612a8b87828801612960565b9450506020612a9c87828801612975565b9350506040612aad87828801612975565b9250506060612abe87828801612975565b91505092959194509250565b600060208284031215612adc57600080fd5b6000612aea84828501612975565b91505092915050565b60008060408385031215612b0657600080fd5b6000612b1485828601612975565b9250506020612b2585828601612936565b9150509250929050565b612b38816132a2565b82525050565b612b4781613248565b82525050565b612b5681613236565b82525050565b612b658161325a565b82525050565b612b74816132b4565b82525050565b6000612b87601183613110565b9150612b92826133a3565b602082019050919050565b6000612baa601f83613110565b9150612bb5826133cc565b602082019050919050565b6000612bcd601683613110565b9150612bd8826133f5565b602082019050919050565b6000612bf0601683613110565b9150612bfb8261341e565b602082019050919050565b6000612c13603383613110565b9150612c1e82613447565b604082019050919050565b6000612c36601183613110565b9150612c4182613496565b602082019050919050565b6000612c59601683613110565b9150612c64826134bf565b602082019050919050565b6000612c7c600f83613110565b9150612c87826134e8565b602082019050919050565b6000612c9f601283613110565b9150612caa82613511565b602082019050919050565b6000612cc2602283613110565b9150612ccd8261353a565b604082019050919050565b6000612ce5601683613110565b9150612cf082613589565b602082019050919050565b6000612d08601983613110565b9150612d13826135b2565b602082019050919050565b6000612d2b602783613110565b9150612d36826135db565b604082019050919050565b6000612d4e601f83613110565b9150612d598261362a565b602082019050919050565b6000612d71601f83613110565b9150612d7c82613653565b602082019050919050565b6000612d94602e83613110565b9150612d9f8261367c565b604082019050919050565b612db381613298565b82525050565b6000602082019050612dce6000830184612b3e565b92915050565b6000606082019050612de96000830186612b4d565b612df66020830185612b2f565b612e036040830184612daa565b949350505050565b6000606082019050612e206000830186612b4d565b612e2d6020830185612b4d565b612e3a6040830184612daa565b949350505050565b6000602082019050612e576000830184612b5c565b92915050565b60006020820190508181036000830152612e7681612b7a565b9050919050565b60006020820190508181036000830152612e9681612b9d565b9050919050565b60006020820190508181036000830152612eb681612bc0565b9050919050565b60006020820190508181036000830152612ed681612be3565b9050919050565b60006020820190508181036000830152612ef681612c06565b9050919050565b60006020820190508181036000830152612f1681612c29565b9050919050565b60006020820190508181036000830152612f3681612c4c565b9050919050565b60006020820190508181036000830152612f5681612c6f565b9050919050565b60006020820190508181036000830152612f7681612c92565b9050919050565b60006020820190508181036000830152612f9681612cb5565b9050919050565b60006020820190508181036000830152612fb681612cd8565b9050919050565b60006020820190508181036000830152612fd681612cfb565b9050919050565b60006020820190508181036000830152612ff681612d1e565b9050919050565b6000602082019050818103600083015261301681612d41565b9050919050565b6000602082019050818103600083015261303681612d64565b9050919050565b6000602082019050818103600083015261305681612d87565b9050919050565b60006020820190506130726000830184612daa565b92915050565b600060c08201905061308d6000830189612daa565b61309a6020830188612b6b565b6130a76040830187612daa565b6130b46060830186612daa565b6130c16080830185612b3e565b6130ce60a0830184612b5c565b979650505050505050565b60006060820190506130ee6000830186612daa565b6130fb6020830185612daa565b6131086040830184612daa565b949350505050565b600082825260208201905092915050565b600061312c82613298565b915061313783613298565b9250827fffffffffffffffffffffffffffffffffffffffffffffffffffffffffffffffff0382111561316c5761316b613345565b5b828201905092915050565b600061318282613298565b915061318d83613298565b92508261319d5761319c613374565b5b828204905092915050565b60006131b382613298565b91506131be83613298565b9250817fffffffffffffffffffffffffffffffffffffffffffffffffffffffffffffffff04831182151516156131f7576131f6613345565b5b828202905092915050565b600061320d82613298565b915061321883613298565b92508282101561322b5761322a613345565b5b828203905092915050565b600061324182613278565b9050919050565b600061325382613278565b9050919050565b60008115159050919050565b600061327182613236565b9050919050565b600073ffffffffffffffffffffffffffffffffffffffff82169050919050565b6000819050919050565b60006132ad826132d8565b9050919050565b60006132bf826132c6565b9050919050565b60006132d182613278565b9050919050565b60006132e3826132ea565b9050919050565b60006132f582613278565b9050919050565b600061330782613298565b91507fffffffffffffffffffffffffffffffffffffffffffffffffffffffffffffffff82141561333a57613339613345565b5b600182019050919050565b7f4e487b7100000000000000000000000000000000000000000000000000000000600052601160045260246000fd5b7f4e487b7100000000000000000000000000000000000000000000000000000000600052601260045260246000fd5b7f6974656d20616c726561647920736f6c64000000000000000000000000000000600082015250565b7f5072696365206d7573742062652067726561746572207468616e207a65726f00600082015250565b7f506c656173652073656e64206d6f72652066756e647300000000000000000000600082015250565b7f41756374696f6e2054696d652072656d61696e696e6700000000000000000000600082015250565b7f6e6f7420656e6f75676820657468657220746f20636f766572206974656d207060008201527f7269636520616e64206d61726b65742066656500000000000000000000000000602082015250565b7f41756374696f6e2068617320656e646564000000000000000000000000000000600082015250565b7f546869732061756374696f6e2068617320456e64656400000000000000000000600082015250565b7f41756374696f6e204e6f7420456e640000000000000000000000000000000000600082015250565b7f6974656d20646f65736e27742065786973740000000000000000000000000000600082015250565b7f596f752063616e6e6f742062696420696e20796f7572206f776e20617563746960008201527f6f6e000000000000000000000000000000000000000000000000000000000000602082015250565b7f41756374696f6e20646f6573206e6f7420657869737400000000000000000000600082015250565b7f796f7520646f6e74206861766520726574756e72206269647300000000000000600082015250565b7f41756374696f6e20666f722074686973204e4654206973206e6f7420696e207060008201527f726f677265737300000000000000000000000000000000000000000000000000602082015250565b7f796f75206172654e6f7420616c6c6f7720746f2063616e63656c206c69737400600082015250565b7f5265656e7472616e637947756172643a207265656e7472616e742063616c6c00600082015250565b7f596f7520617265206e6f7420617574686f72697a656420746f20636f6e636c7560008201527f6465207468652061756374696f6e000000000000000000000000000000000000602082015250565b6136d481613236565b81146136df57600080fd5b50565b6136eb81613248565b81146136f657600080fd5b50565b61370281613266565b811461370d57600080fd5b50565b61371981613298565b811461372457600080fd5b5056fea26469706673582212206da6318c563b35363fba6f2c4db50804ad9bb7bdcf86ef8ed5cb83b9d64f05b564736f6c63430008040033",
  "linkReferences": {},
  "deployedLinkReferences": {}
}