{
  "_format": "hh-sol-artifact-1",
  "contractName": "Marketplace",
  "sourceName": "src/backend/contracts/Marketplace.sol",
  "abi": [
    {
      "inputs": [
        {
          "internalType": "uint256",
          "name": "_feePercent",
          "type": "uint256"
        }
      ],
      "stateMutability": "nonpayable",
      "type": "constructor"
    },
    {
      "anonymous": false,
      "inputs": [
        {
          "indexed": false,
          "internalType": "uint256",
          "name": "itemId",
          "type": "uint256"
        },
        {
          "indexed": true,
          "internalType": "address",
          "name": "nft",
          "type": "address"
        },
        {
          "indexed": false,
          "internalType": "uint256",
          "name": "tokenId",
          "type": "uint256"
        },
        {
          "indexed": false,
          "internalType": "uint256",
          "name": "price",
          "type": "uint256"
        },
        {
          "indexed": true,
          "internalType": "address",
          "name": "seller",
          "type": "address"
        },
        {
          "indexed": true,
          "internalType": "address",
          "name": "buyer",
          "type": "address"
        }
      ],
      "name": "Bought",
      "type": "event"
    },
    {
      "anonymous": false,
      "inputs": [
        {
          "indexed": false,
          "internalType": "uint256",
          "name": "itemId",
          "type": "uint256"
        },
        {
          "indexed": true,
          "internalType": "address",
          "name": "nft",
          "type": "address"
        },
        {
          "indexed": false,
          "internalType": "uint256",
          "name": "tokenId",
          "type": "uint256"
        },
        {
          "indexed": false,
          "internalType": "uint256",
          "name": "price",
          "type": "uint256"
        },
        {
          "indexed": true,
          "internalType": "address",
          "name": "seller",
          "type": "address"
        }
      ],
      "name": "Offered",
      "type": "event"
    },
    {
      "stateMutability": "payable",
      "type": "fallback"
    },
    {
      "inputs": [
        {
          "internalType": "uint256",
          "name": "itemId",
          "type": "uint256"
        }
      ],
      "name": "_checkAuctionStatus",
      "outputs": [
        {
          "internalType": "bool",
          "name": "",
          "type": "bool"
        }
      ],
      "stateMutability": "view",
      "type": "function"
    },
    {
      "inputs": [
        {
          "internalType": "uint256",
          "name": "itemId",
          "type": "uint256"
        }
      ],
      "name": "_updateStatus",
      "outputs": [],
      "stateMutability": "nonpayable",
      "type": "function"
    },
    {
      "inputs": [
        {
          "internalType": "uint256",
          "name": "itemId",
          "type": "uint256"
        }
      ],
      "name": "bid",
      "outputs": [],
      "stateMutability": "payable",
      "type": "function"
    },
    {
      "inputs": [
        {
          "internalType": "uint256",
          "name": "itemId",
          "type": "uint256"
        }
      ],
      "name": "cancelListing",
      "outputs": [],
      "stateMutability": "nonpayable",
      "type": "function"
    },
    {
      "inputs": [
        {
          "internalType": "uint256",
          "name": "itemId",
          "type": "uint256"
        },
        {
          "internalType": "address",
          "name": "_msgSender",
          "type": "address"
        }
      ],
      "name": "concludeAuction",
      "outputs": [],
      "stateMutability": "payable",
      "type": "function"
    },
    {
      "inputs": [
        {
          "internalType": "contract IERC721",
          "name": "_nft",
          "type": "address"
        },
        {
          "internalType": "uint256",
          "name": "_tokenId",
          "type": "uint256"
        },
        {
          "internalType": "uint256",
          "name": "_basePrice",
          "type": "uint256"
        },
        {
          "internalType": "uint256",
          "name": "endTime",
          "type": "uint256"
        }
      ],
      "name": "createAuction",
      "outputs": [],
      "stateMutability": "nonpayable",
      "type": "function"
    },
    {
      "inputs": [],
      "name": "feeAccount",
      "outputs": [
        {
          "internalType": "address payable",
          "name": "",
          "type": "address"
        }
      ],
      "stateMutability": "view",
      "type": "function"
    },
    {
      "inputs": [],
      "name": "feePercent",
      "outputs": [
        {
          "internalType": "uint256",
          "name": "",
          "type": "uint256"
        }
      ],
      "stateMutability": "view",
      "type": "function"
    },
    {
      "inputs": [
        {
          "internalType": "uint256",
          "name": "itemId",
          "type": "uint256"
        }
      ],
      "name": "getHighestBid",
      "outputs": [
        {
          "internalType": "uint256",
          "name": "",
          "type": "uint256"
        }
      ],
      "stateMutability": "view",
      "type": "function"
    },
    {
      "inputs": [
        {
          "internalType": "uint256",
          "name": "itemId",
          "type": "uint256"
        }
      ],
      "name": "getHighestBidder",
      "outputs": [
        {
          "internalType": "address",
          "name": "",
          "type": "address"
        }
      ],
      "stateMutability": "view",
      "type": "function"
    },
    {
      "inputs": [
        {
          "internalType": "uint256",
          "name": "itemId",
          "type": "uint256"
        }
      ],
      "name": "getLastTime",
      "outputs": [
        {
          "internalType": "uint256",
          "name": "",
          "type": "uint256"
        }
      ],
      "stateMutability": "view",
      "type": "function"
    },
    {
      "inputs": [
        {
          "internalType": "address",
          "name": "account",
          "type": "address"
        }
      ],
      "name": "getPendingReturns",
      "outputs": [
        {
          "internalType": "uint256",
          "name": "",
          "type": "uint256"
        }
      ],
      "stateMutability": "view",
      "type": "function"
    },
    {
      "inputs": [
        {
          "internalType": "uint256",
          "name": "itemId",
          "type": "uint256"
        }
      ],
      "name": "isAuction",
      "outputs": [
        {
          "internalType": "bool",
          "name": "",
          "type": "bool"
        }
      ],
      "stateMutability": "view",
      "type": "function"
    },
    {
      "inputs": [],
      "name": "itemCount",
      "outputs": [
        {
          "internalType": "uint256",
          "name": "",
          "type": "uint256"
        }
      ],
      "stateMutability": "view",
      "type": "function"
    },
    {
      "inputs": [
        {
          "internalType": "uint256",
          "name": "",
          "type": "uint256"
        }
      ],
      "name": "items",
      "outputs": [
        {
          "internalType": "uint256",
          "name": "itemId",
          "type": "uint256"
        },
        {
          "internalType": "contract IERC721",
          "name": "nft",
          "type": "address"
        },
        {
          "internalType": "uint256",
          "name": "tokenId",
          "type": "uint256"
        },
        {
          "internalType": "uint256",
          "name": "price",
          "type": "uint256"
        },
        {
          "internalType": "address payable",
          "name": "seller",
          "type": "address"
        },
        {
          "internalType": "bool",
          "name": "sold",
          "type": "bool"
        }
      ],
      "stateMutability": "view",
      "type": "function"
    },
    {
      "inputs": [
        {
          "internalType": "contract IERC721",
          "name": "_nft",
          "type": "address"
        },
        {
          "internalType": "uint256",
          "name": "_tokenId",
          "type": "uint256"
        },
        {
          "internalType": "uint256",
          "name": "_price",
          "type": "uint256"
        }
      ],
      "name": "makeItem",
      "outputs": [],
      "stateMutability": "nonpayable",
      "type": "function"
    },
    {
      "inputs": [
        {
          "internalType": "address",
          "name": "",
          "type": "address"
        },
        {
          "internalType": "uint256",
          "name": "",
          "type": "uint256"
        }
      ],
      "name": "payedBids",
      "outputs": [
        {
          "internalType": "uint256",
          "name": "",
          "type": "uint256"
        }
      ],
      "stateMutability": "view",
      "type": "function"
    },
    {
      "inputs": [
        {
          "internalType": "uint256",
          "name": "_itemId",
          "type": "uint256"
        }
      ],
      "name": "purchaseItem",
      "outputs": [],
      "stateMutability": "payable",
      "type": "function"
    },
    {
      "inputs": [],
      "name": "totalAuctionCompleted",
      "outputs": [
        {
          "internalType": "uint256",
          "name": "",
          "type": "uint256"
        }
      ],
      "stateMutability": "view",
      "type": "function"
    },
    {
      "inputs": [],
      "name": "totalVolume",
      "outputs": [
        {
          "internalType": "uint256",
          "name": "",
          "type": "uint256"
        }
      ],
      "stateMutability": "view",
      "type": "function"
    },
    {
      "inputs": [
        {
          "internalType": "address payable",
          "name": "account",
          "type": "address"
        }
      ],
      "name": "withdraw",
      "outputs": [],
      "stateMutability": "payable",
      "type": "function"
    },
    {
      "stateMutability": "payable",
      "type": "receive"
    }
  ],
  "bytecode": "0x60c06040523480156200001157600080fd5b50604051620040a0380380620040a083398181016040528101906200003791906200009c565b60016000819055503373ffffffffffffffffffffffffffffffffffffffff1660808173ffffffffffffffffffffffffffffffffffffffff1660601b815250508060a0818152505050620000ec565b6000815190506200009681620000d2565b92915050565b600060208284031215620000af57600080fd5b6000620000bf8482850162000085565b91505092915050565b6000819050919050565b620000dd81620000c8565b8114620000e957600080fd5b50565b60805160601c60a051613f7d620001236000396000611e4001526000818161162101528181611cb901526125ff0152613f7d6000f3fe60806040526004361061012d5760003560e01c80636bfb0d01116100ab5780638f2886441161006f5780638f288644146103d0578063bbc215c31461040d578063bfb231d21461044a578063c750cb791461048c578063d38ea5bf146104c9578063fa00afc7146104e557610134565b80636bfb0d01146102c35780637bce3b1b146102ee5780637fd6f15c1461032b57806383ffda3b146103565780638704f2a31461039357610134565b806351cff8d9116100f257806351cff8d91461020c5780635f81a57c1461022857806361beb1d71461025357806365e17c9d1461027c5780636bf774a7146102a757610134565b80623db6d2146101365780632212c6941461015f57806327fabf771461019c578063305a67a8146101c7578063454a2ab3146101f057610134565b3661013457005b005b34801561014257600080fd5b5061015d6004803603810190610158919061328e565b61050e565b005b34801561016b57600080fd5b506101866004803603810190610181919061328e565b6107fb565b6040516101939190613660565b60405180910390f35b3480156101a857600080fd5b506101b16109b5565b6040516101be919061387d565b60405180910390f35b3480156101d357600080fd5b506101ee60048036038101906101e9919061328e565b6109bb565b005b61020a6004803603810190610205919061328e565b610b50565b005b61022660048036038101906102219190613177565b61117d565b005b34801561023457600080fd5b5061023d61125b565b60405161024a919061387d565b60405180910390f35b34801561025f57600080fd5b5061027a6004803603810190610275919061322b565b611261565b005b34801561028857600080fd5b5061029161161f565b60405161029e91906135d7565b60405180910390f35b6102c160048036038101906102bc91906132e0565b611643565b005b3480156102cf57600080fd5b506102d8611e13565b6040516102e5919061387d565b60405180910390f35b3480156102fa57600080fd5b50610315600480360381019061031091906131a0565b611e19565b604051610322919061387d565b60405180910390f35b34801561033757600080fd5b50610340611e3e565b60405161034d919061387d565b60405180910390f35b34801561036257600080fd5b5061037d60048036038101906103789190613125565b611e62565b60405161038a919061387d565b60405180910390f35b34801561039f57600080fd5b506103ba60048036038101906103b5919061328e565b611eab565b6040516103c79190613660565b60405180910390f35b3480156103dc57600080fd5b506103f760048036038101906103f2919061328e565b611ef0565b604051610404919061387d565b60405180910390f35b34801561041957600080fd5b50610434600480360381019061042f919061328e565b612035565b604051610441919061387d565b60405180910390f35b34801561045657600080fd5b50610471600480360381019061046c919061328e565b61217a565b60405161048396959493929190613898565b60405180910390f35b34801561049857600080fd5b506104b360048036038101906104ae919061328e565b612203565b6040516104c091906135bc565b60405180910390f35b6104e360048036038101906104de919061328e565b612348565b005b3480156104f157600080fd5b5061050c600480360381019061050791906131dc565b6128c4565b005b600060056000838152602001908152602001600020604051806101200160405290816000820160009054906101000a900460ff16151515158152602001600182015481526020016002820160009054906101000a900473ffffffffffffffffffffffffffffffffffffffff1673ffffffffffffffffffffffffffffffffffffffff1673ffffffffffffffffffffffffffffffffffffffff168152602001600382015481526020016004820160009054906101000a900473ffffffffffffffffffffffffffffffffffffffff1673ffffffffffffffffffffffffffffffffffffffff1673ffffffffffffffffffffffffffffffffffffffff1681526020016005820154815260200160068201548152602001600782015481526020016008820160009054906101000a900460ff161515151581525050905060001515816101000151151514610691576040517f08c379a00000000000000000000000000000000000000000000000000000000081526004016106889061375d565b60405180910390fd5b8060c001514211156106b0576001816101000190151590811515815250505b806005600084815260200190815260200160002060008201518160000160006101000a81548160ff0219169083151502179055506020820151816001015560408201518160020160006101000a81548173ffffffffffffffffffffffffffffffffffffffff021916908373ffffffffffffffffffffffffffffffffffffffff1602179055506060820151816003015560808201518160040160006101000a81548173ffffffffffffffffffffffffffffffffffffffff021916908373ffffffffffffffffffffffffffffffffffffffff16021790555060a0820151816005015560c0820151816006015560e082015181600701556101008201518160080160006101000a81548160ff02191690831515021790555090505060006005600084815260200190815260200160002060000160006101000a81548160ff0219169083151502179055505050565b60008060056000848152602001908152602001600020604051806101200160405290816000820160009054906101000a900460ff16151515158152602001600182015481526020016002820160009054906101000a900473ffffffffffffffffffffffffffffffffffffffff1673ffffffffffffffffffffffffffffffffffffffff1673ffffffffffffffffffffffffffffffffffffffff168152602001600382015481526020016004820160009054906101000a900473ffffffffffffffffffffffffffffffffffffffff1673ffffffffffffffffffffffffffffffffffffffff1673ffffffffffffffffffffffffffffffffffffffff1681526020016005820154815260200160068201548152602001600782015481526020016008820160009054906101000a900460ff1615151515815250509050600073ffffffffffffffffffffffffffffffffffffffff16816040015173ffffffffffffffffffffffffffffffffffffffff1614156109a7576040517f08c379a000000000000000000000000000000000000000000000000000000000815260040161099e906137fd565b60405180910390fd5b806101000151915050919050565b60045481565b6109c3612b50565b60006002600083815260200190815260200160002090503373ffffffffffffffffffffffffffffffffffffffff168160040160009054906101000a900473ffffffffffffffffffffffffffffffffffffffff1673ffffffffffffffffffffffffffffffffffffffff1614610a6c576040517f08c379a0000000000000000000000000000000000000000000000000000000008152600401610a639061381d565b60405180910390fd5b8060010160009054906101000a900473ffffffffffffffffffffffffffffffffffffffff1673ffffffffffffffffffffffffffffffffffffffff166323b872dd308360040160009054906101000a900473ffffffffffffffffffffffffffffffffffffffff1684600201546040518463ffffffff1660e01b8152600401610af5939291906135f2565b600060405180830381600087803b158015610b0f57600080fd5b505af1158015610b23573d6000803e3d6000fd5b5050505060018160040160146101000a81548160ff02191690831515021790555050610b4d612ba0565b50565b600060056000838152602001908152602001600020604051806101200160405290816000820160009054906101000a900460ff16151515158152602001600182015481526020016002820160009054906101000a900473ffffffffffffffffffffffffffffffffffffffff1673ffffffffffffffffffffffffffffffffffffffff1673ffffffffffffffffffffffffffffffffffffffff168152602001600382015481526020016004820160009054906101000a900473ffffffffffffffffffffffffffffffffffffffff1673ffffffffffffffffffffffffffffffffffffffff1673ffffffffffffffffffffffffffffffffffffffff1681526020016005820154815260200160068201548152602001600782015481526020016008820160009054906101000a900460ff161515151581525050905060001515816101000151151514610cd3576040517f08c379a0000000000000000000000000000000000000000000000000000000008152600401610cca9061373d565b60405180910390fd5b600073ffffffffffffffffffffffffffffffffffffffff16816040015173ffffffffffffffffffffffffffffffffffffffff161415610d47576040517f08c379a0000000000000000000000000000000000000000000000000000000008152600401610d3e906137dd565b60405180910390fd5b8060c00151421015611179576000600660003373ffffffffffffffffffffffffffffffffffffffff1673ffffffffffffffffffffffffffffffffffffffff16815260200190815260200160002060008481526020019081526020016000205490508034610db4919061394c565b8260a00151108015610dd557508034610dcd919061394c565b826060015111155b610e14576040517f08c379a0000000000000000000000000000000000000000000000000000000008152600401610e0b906136dd565b60405180910390fd5b816040015173ffffffffffffffffffffffffffffffffffffffff163373ffffffffffffffffffffffffffffffffffffffff161415610e87576040517f08c379a0000000000000000000000000000000000000000000000000000000008152600401610e7e906137bd565b60405180910390fd5b3481610e93919061394c565b600660003373ffffffffffffffffffffffffffffffffffffffff1673ffffffffffffffffffffffffffffffffffffffff168152602001908152602001600020600085815260200190815260200160002081905550600660003373ffffffffffffffffffffffffffffffffffffffff1673ffffffffffffffffffffffffffffffffffffffff1681526020019081526020016000206000848152602001908152602001600020549050808260a001818152505033826080019073ffffffffffffffffffffffffffffffffffffffff16908173ffffffffffffffffffffffffffffffffffffffff16815250506007600084815260200190815260200160002060405180606001604052803373ffffffffffffffffffffffffffffffffffffffff16815260200183815260200142815250908060018154018082558091505060019003906000526020600020906003020160009091909190915060008201518160000160006101000a81548173ffffffffffffffffffffffffffffffffffffffff021916908373ffffffffffffffffffffffffffffffffffffffff16021790555060208201518160010155604082015181600201555050816005600085815260200190815260200160002060008201518160000160006101000a81548160ff0219169083151502179055506020820151816001015560408201518160020160006101000a81548173ffffffffffffffffffffffffffffffffffffffff021916908373ffffffffffffffffffffffffffffffffffffffff1602179055506060820151816003015560808201518160040160006101000a81548173ffffffffffffffffffffffffffffffffffffffff021916908373ffffffffffffffffffffffffffffffffffffffff16021790555060a0820151816005015560c0820151816006015560e082015181600701556101008201518160080160006101000a81548160ff0219169083151502179055509050503460036000828254611170919061394c565b92505081905550505b5050565b600061118882611e62565b9050600081116111cd576040517f08c379a00000000000000000000000000000000000000000000000000000000081526004016111c49061371d565b60405180910390fd5b8173ffffffffffffffffffffffffffffffffffffffff166108fc829081150290604051600060405180830381858888f19350505050158015611213573d6000803e3d6000fd5b50600860008373ffffffffffffffffffffffffffffffffffffffff1673ffffffffffffffffffffffffffffffffffffffff168152602001908152602001600020600090555050565b60035481565b600082116112a4576040517f08c379a000000000000000000000000000000000000000000000000000000000815260040161129b906136bd565b60405180910390fd5b600160008154809291906112b790613b5a565b91905055508373ffffffffffffffffffffffffffffffffffffffff166323b872dd3330866040518463ffffffff1660e01b81526004016112f993929190613629565b600060405180830381600087803b15801561131357600080fd5b505af1158015611327573d6000803e3d6000fd5b5050505060018161133891906139d3565b90508042611346919061394c565b905060405180610120016040528060011515815260200160015481526020013373ffffffffffffffffffffffffffffffffffffffff168152602001838152602001600073ffffffffffffffffffffffffffffffffffffffff168152602001600081526020018281526020014281526020016000151581525060056000600154815260200190815260200160002060008201518160000160006101000a81548160ff0219169083151502179055506020820151816001015560408201518160020160006101000a81548173ffffffffffffffffffffffffffffffffffffffff021916908373ffffffffffffffffffffffffffffffffffffffff1602179055506060820151816003015560808201518160040160006101000a81548173ffffffffffffffffffffffffffffffffffffffff021916908373ffffffffffffffffffffffffffffffffffffffff16021790555060a0820151816005015560c0820151816006015560e082015181600701556101008201518160080160006101000a81548160ff0219169083151502179055509050506040518060c0016040528060015481526020018573ffffffffffffffffffffffffffffffffffffffff1681526020018481526020018381526020013373ffffffffffffffffffffffffffffffffffffffff168152602001600015158152506002600060015481526020019081526020016000206000820151816000015560208201518160010160006101000a81548173ffffffffffffffffffffffffffffffffffffffff021916908373ffffffffffffffffffffffffffffffffffffffff160217905550604082015181600201556060820151816003015560808201518160040160006101000a81548173ffffffffffffffffffffffffffffffffffffffff021916908373ffffffffffffffffffffffffffffffffffffffff16021790555060a08201518160040160146101000a81548160ff02191690831515021790555090505050505050565b7f000000000000000000000000000000000000000000000000000000000000000081565b600060056000848152602001908152602001600020604051806101200160405290816000820160009054906101000a900460ff16151515158152602001600182015481526020016002820160009054906101000a900473ffffffffffffffffffffffffffffffffffffffff1673ffffffffffffffffffffffffffffffffffffffff1673ffffffffffffffffffffffffffffffffffffffff168152602001600382015481526020016004820160009054906101000a900473ffffffffffffffffffffffffffffffffffffffff1673ffffffffffffffffffffffffffffffffffffffff1673ffffffffffffffffffffffffffffffffffffffff1681526020016005820154815260200160068201548152602001600782015481526020016008820160009054906101000a900460ff16151515158152505090506005600084815260200190815260200160002060020160009054906101000a900473ffffffffffffffffffffffffffffffffffffffff1673ffffffffffffffffffffffffffffffffffffffff168273ffffffffffffffffffffffffffffffffffffffff16148061184b57506005600084815260200190815260200160002060040160009054906101000a900473ffffffffffffffffffffffffffffffffffffffff1673ffffffffffffffffffffffffffffffffffffffff168273ffffffffffffffffffffffffffffffffffffffff16145b61188a576040517f08c379a00000000000000000000000000000000000000000000000000000000081526004016118819061385d565b60405180910390fd5b428160c00151106118d0576040517f08c379a00000000000000000000000000000000000000000000000000000000081526004016118c7906136fd565b60405180910390fd5b60006118db846107fb565b9050806118ec576118eb8461050e565b5b60006002600086815260200190815260200160002090508060010160009054906101000a900473ffffffffffffffffffffffffffffffffffffffff1673ffffffffffffffffffffffffffffffffffffffff166323b872dd303384600201546040518463ffffffff1660e01b815260040161196893929190613629565b600060405180830381600087803b15801561198257600080fd5b505af1158015611996573d6000803e3d6000fd5b5050505060018160040160146101000a81548160ff0219169083151502179055503373ffffffffffffffffffffffffffffffffffffffff168160040160009054906101000a900473ffffffffffffffffffffffffffffffffffffffff1673ffffffffffffffffffffffffffffffffffffffff168260010160009054906101000a900473ffffffffffffffffffffffffffffffffffffffff1673ffffffffffffffffffffffffffffffffffffffff167f8b4c9c8a607d67b321582dd8461041b1dc2ceeca70c8b7f37f8e02095cf2e76d8885600201548660030154604051611a7f939291906138f9565b60405180910390a4611ac56040518060400160405280601481526020017f7468697320697320746f74616c20707269636520000000000000000000000000815250612baa565b60008160010160009054906101000a900473ffffffffffffffffffffffffffffffffffffffff1673ffffffffffffffffffffffffffffffffffffffff166340a58a3283600201546040518263ffffffff1660e01b8152600401611b28919061387d565b60206040518083038186803b158015611b4057600080fd5b505afa158015611b54573d6000803e3d6000fd5b505050506040513d601f19601f82011682018060405250810190611b78919061314e565b905060008260010160009054906101000a900473ffffffffffffffffffffffffffffffffffffffff1673ffffffffffffffffffffffffffffffffffffffff1663c7ea4f1784600201546040518263ffffffff1660e01b8152600401611bdd919061387d565b60206040518083038186803b158015611bf557600080fd5b505afa158015611c09573d6000803e3d6000fd5b505050506040513d601f19601f82011682018060405250810190611c2d91906132b7565b905060066000866080015173ffffffffffffffffffffffffffffffffffffffff1673ffffffffffffffffffffffffffffffffffffffff168152602001908152602001600020600088815260200190815260200160002060009055600060018660a00151611c9a91906139d3565b90506000611ca88284612c43565b90506000611cb583612c66565b90507f000000000000000000000000000000000000000000000000000000000000000073ffffffffffffffffffffffffffffffffffffffff166108fc829081150290604051600060405180830381858888f19350505050158015611d1d573d6000803e3d6000fd5b508473ffffffffffffffffffffffffffffffffffffffff166108fc839081150290604051600060405180830381858888f19350505050158015611d64573d6000803e3d6000fd5b508560040160009054906101000a900473ffffffffffffffffffffffffffffffffffffffff1673ffffffffffffffffffffffffffffffffffffffff166108fc8383611daf919061394c565b85611dba9190613a2d565b9081150290604051600060405180830381858888f19350505050158015611de5573d6000803e3d6000fd5b50611def8a612c89565b60046000815480929190611e0290613b5a565b919050555050505050505050505050565b60015481565b6006602052816000526040600020602052806000526040600020600091509150505481565b7f000000000000000000000000000000000000000000000000000000000000000081565b6000600860008373ffffffffffffffffffffffffffffffffffffffff1673ffffffffffffffffffffffffffffffffffffffff168152602001908152602001600020549050919050565b6000600115156005600084815260200190815260200160002060000160009054906101000a900460ff1615151415611ee65760019050611eeb565b600090505b919050565b60008060056000848152602001908152602001600020604051806101200160405290816000820160009054906101000a900460ff16151515158152602001600182015481526020016002820160009054906101000a900473ffffffffffffffffffffffffffffffffffffffff1673ffffffffffffffffffffffffffffffffffffffff1673ffffffffffffffffffffffffffffffffffffffff168152602001600382015481526020016004820160009054906101000a900473ffffffffffffffffffffffffffffffffffffffff1673ffffffffffffffffffffffffffffffffffffffff1673ffffffffffffffffffffffffffffffffffffffff1681526020016005820154815260200160068201548152602001600782015481526020016008820160009054906101000a900460ff16151515158152505090508060a00151915050919050565b60008060056000848152602001908152602001600020604051806101200160405290816000820160009054906101000a900460ff16151515158152602001600182015481526020016002820160009054906101000a900473ffffffffffffffffffffffffffffffffffffffff1673ffffffffffffffffffffffffffffffffffffffff1673ffffffffffffffffffffffffffffffffffffffff168152602001600382015481526020016004820160009054906101000a900473ffffffffffffffffffffffffffffffffffffffff1673ffffffffffffffffffffffffffffffffffffffff1673ffffffffffffffffffffffffffffffffffffffff1681526020016005820154815260200160068201548152602001600782015481526020016008820160009054906101000a900460ff16151515158152505090508060c00151915050919050565b60026020528060005260406000206000915090508060000154908060010160009054906101000a900473ffffffffffffffffffffffffffffffffffffffff16908060020154908060030154908060040160009054906101000a900473ffffffffffffffffffffffffffffffffffffffff16908060040160149054906101000a900460ff16905086565b60008060056000848152602001908152602001600020604051806101200160405290816000820160009054906101000a900460ff16151515158152602001600182015481526020016002820160009054906101000a900473ffffffffffffffffffffffffffffffffffffffff1673ffffffffffffffffffffffffffffffffffffffff1673ffffffffffffffffffffffffffffffffffffffff168152602001600382015481526020016004820160009054906101000a900473ffffffffffffffffffffffffffffffffffffffff1673ffffffffffffffffffffffffffffffffffffffff1673ffffffffffffffffffffffffffffffffffffffff1681526020016005820154815260200160068201548152602001600782015481526020016008820160009054906101000a900460ff16151515158152505090508060800151915050919050565b612350612b50565b600015156005600083815260200190815260200160002060000160009054906101000a900460ff161515146123ba576040517f08c379a00000000000000000000000000000000000000000000000000000000081526004016123b19061377d565b60405180910390fd5b60006123c582613045565b905060006002600084815260200190815260200160002090506000831180156123f057506001548311155b61242f576040517f08c379a00000000000000000000000000000000000000000000000000000000081526004016124269061379d565b60405180910390fd5b8060040160149054906101000a900460ff1615612481576040517f08c379a00000000000000000000000000000000000000000000000000000000081526004016124789061369d565b60405180910390fd5b60008160010160009054906101000a900473ffffffffffffffffffffffffffffffffffffffff1673ffffffffffffffffffffffffffffffffffffffff166340a58a3283600201546040518263ffffffff1660e01b81526004016124e4919061387d565b60206040518083038186803b1580156124fc57600080fd5b505afa158015612510573d6000803e3d6000fd5b505050506040513d601f19601f82011682018060405250810190612534919061314e565b905060008260010160009054906101000a900473ffffffffffffffffffffffffffffffffffffffff1673ffffffffffffffffffffffffffffffffffffffff1663c7ea4f1784600201546040518263ffffffff1660e01b8152600401612599919061387d565b60206040518083038186803b1580156125b157600080fd5b505afa1580156125c5573d6000803e3d6000fd5b505050506040513d601f19601f820116820180604052508101906125e991906132b7565b905060006125fb846003015483612c43565b90507f000000000000000000000000000000000000000000000000000000000000000073ffffffffffffffffffffffffffffffffffffffff166108fc869081150290604051600060405180830381858888f19350505050158015612663573d6000803e3d6000fd5b508273ffffffffffffffffffffffffffffffffffffffff166108fc829081150290604051600060405180830381858888f193505050501580156126aa573d6000803e3d6000fd5b508360040160009054906101000a900473ffffffffffffffffffffffffffffffffffffffff1673ffffffffffffffffffffffffffffffffffffffff166108fc82876126f5919061394c565b86600301546127049190613a2d565b9081150290604051600060405180830381858888f1935050505015801561272f573d6000803e3d6000fd5b5060018460040160146101000a81548160ff0219169083151502179055508360010160009054906101000a900473ffffffffffffffffffffffffffffffffffffffff1673ffffffffffffffffffffffffffffffffffffffff166323b872dd303387600201546040518463ffffffff1660e01b81526004016127b293929190613629565b600060405180830381600087803b1580156127cc57600080fd5b505af11580156127e0573d6000803e3d6000fd5b505050503373ffffffffffffffffffffffffffffffffffffffff168460040160009054906101000a900473ffffffffffffffffffffffffffffffffffffffff1673ffffffffffffffffffffffffffffffffffffffff168560010160009054906101000a900473ffffffffffffffffffffffffffffffffffffffff1673ffffffffffffffffffffffffffffffffffffffff167f8b4c9c8a607d67b321582dd8461041b1dc2ceeca70c8b7f37f8e02095cf2e76d89886002015489600301546040516128ac939291906138f9565b60405180910390a450505050506128c1612ba0565b50565b6128cc612b50565b6000811161290f576040517f08c379a0000000000000000000000000000000000000000000000000000000008152600401612906906136bd565b60405180910390fd5b6001600081548092919061292290613b5a565b91905055508273ffffffffffffffffffffffffffffffffffffffff166323b872dd3330856040518463ffffffff1660e01b815260040161296493929190613629565b600060405180830381600087803b15801561297e57600080fd5b505af1158015612992573d6000803e3d6000fd5b505050506040518060c0016040528060015481526020018473ffffffffffffffffffffffffffffffffffffffff1681526020018381526020018281526020013373ffffffffffffffffffffffffffffffffffffffff168152602001600015158152506002600060015481526020019081526020016000206000820151816000015560208201518160010160006101000a81548173ffffffffffffffffffffffffffffffffffffffff021916908373ffffffffffffffffffffffffffffffffffffffff160217905550604082015181600201556060820151816003015560808201518160040160006101000a81548173ffffffffffffffffffffffffffffffffffffffff021916908373ffffffffffffffffffffffffffffffffffffffff16021790555060a08201518160040160146101000a81548160ff0219169083151502179055509050503373ffffffffffffffffffffffffffffffffffffffff168373ffffffffffffffffffffffffffffffffffffffff167f655a0cf9c8db81512be9a76dc1c5ae5380b8816ce6ad659cd61b715e2999d59a6001548585604051612b3b939291906138f9565b60405180910390a3612b4b612ba0565b505050565b60026000541415612b96576040517f08c379a0000000000000000000000000000000000000000000000000000000008152600401612b8d9061383d565b60405180910390fd5b6002600081905550565b6001600081905550565b612c4081604051602401612bbe919061367b565b6040516020818303038152906040527f41304fac000000000000000000000000000000000000000000000000000000007bffffffffffffffffffffffffffffffffffffffffffffffffffffffff19166020820180517bffffffffffffffffffffffffffffffffffffffffffffffffffffffff838183161783525050505061307e565b50565b60008161271084612c5491906139a2565b612c5e91906139d3565b905092915050565b600060fa61271083612c7891906139a2565b612c8291906139d3565b9050919050565b600060076000838152602001908152602001600020805480602002602001604051908101604052809291908181526020016000905b82821015612d5a57838290600052602060002090600302016040518060600160405290816000820160009054906101000a900473ffffffffffffffffffffffffffffffffffffffff1673ffffffffffffffffffffffffffffffffffffffff1673ffffffffffffffffffffffffffffffffffffffff1681526020016001820154815260200160028201548152505081526020019060010190612cbe565b505050509050600060056000848152602001908152602001600020604051806101200160405290816000820160009054906101000a900460ff16151515158152602001600182015481526020016002820160009054906101000a900473ffffffffffffffffffffffffffffffffffffffff1673ffffffffffffffffffffffffffffffffffffffff1673ffffffffffffffffffffffffffffffffffffffff168152602001600382015481526020016004820160009054906101000a900473ffffffffffffffffffffffffffffffffffffffff1673ffffffffffffffffffffffffffffffffffffffff1673ffffffffffffffffffffffffffffffffffffffff1681526020016005820154815260200160068201548152602001600782015481526020016008820160009054906101000a900460ff161515151581525050905060005b60018351612ea89190613a2d565b811161303f578160a00151838281518110612eec577f4e487b7100000000000000000000000000000000000000000000000000000000600052603260045260246000fd5b6020026020010151602001511461302c5760066000848381518110612f3a577f4e487b7100000000000000000000000000000000000000000000000000000000600052603260045260246000fd5b60200260200101516000015173ffffffffffffffffffffffffffffffffffffffff1673ffffffffffffffffffffffffffffffffffffffff16815260200190815260200160002060008581526020019081526020016000205460086000858481518110612fcf577f4e487b7100000000000000000000000000000000000000000000000000000000600052603260045260246000fd5b60200260200101516000015173ffffffffffffffffffffffffffffffffffffffff1673ffffffffffffffffffffffffffffffffffffffff1681526020019081526020016000206000828254613024919061394c565b925050819055505b808061303790613b5a565b915050612e9a565b50505050565b600060fa612710600260008581526020019081526020016000206003015461306d91906139a2565b61307791906139d3565b9050919050565b60008151905060006a636f6e736f6c652e6c6f679050602083016000808483855afa5050505050565b6000813590506130b681613eeb565b92915050565b6000815190506130cb81613eeb565b92915050565b6000813590506130e081613f02565b92915050565b6000813590506130f581613f19565b92915050565b60008135905061310a81613f30565b92915050565b60008151905061311f81613f30565b92915050565b60006020828403121561313757600080fd5b6000613145848285016130a7565b91505092915050565b60006020828403121561316057600080fd5b600061316e848285016130bc565b91505092915050565b60006020828403121561318957600080fd5b6000613197848285016130d1565b91505092915050565b600080604083850312156131b357600080fd5b60006131c1858286016130a7565b92505060206131d2858286016130fb565b9150509250929050565b6000806000606084860312156131f157600080fd5b60006131ff868287016130e6565b9350506020613210868287016130fb565b9250506040613221868287016130fb565b9150509250925092565b6000806000806080858703121561324157600080fd5b600061324f878288016130e6565b9450506020613260878288016130fb565b9350506040613271878288016130fb565b9250506060613282878288016130fb565b91505092959194509250565b6000602082840312156132a057600080fd5b60006132ae848285016130fb565b91505092915050565b6000602082840312156132c957600080fd5b60006132d784828501613110565b91505092915050565b600080604083850312156132f357600080fd5b6000613301858286016130fb565b9250506020613312858286016130a7565b9150509250929050565b61332581613acd565b82525050565b61333481613a73565b82525050565b61334381613a61565b82525050565b61335281613a85565b82525050565b61336181613adf565b82525050565b600061337282613930565b61337c818561393b565b935061338c818560208601613b27565b61339581613c01565b840191505092915050565b60006133ad60118361393b565b91506133b882613c12565b602082019050919050565b60006133d0601f8361393b565b91506133db82613c3b565b602082019050919050565b60006133f360168361393b565b91506133fe82613c64565b602082019050919050565b600061341660168361393b565b915061342182613c8d565b602082019050919050565b600061343960198361393b565b915061344482613cb6565b602082019050919050565b600061345c60118361393b565b915061346782613cdf565b602082019050919050565b600061347f60168361393b565b915061348a82613d08565b602082019050919050565b60006134a2600f8361393b565b91506134ad82613d31565b602082019050919050565b60006134c560128361393b565b91506134d082613d5a565b602082019050919050565b60006134e860228361393b565b91506134f382613d83565b604082019050919050565b600061350b60168361393b565b915061351682613dd2565b602082019050919050565b600061352e60278361393b565b915061353982613dfb565b604082019050919050565b6000613551601f8361393b565b915061355c82613e4a565b602082019050919050565b6000613574601f8361393b565b915061357f82613e73565b602082019050919050565b6000613597602e8361393b565b91506135a282613e9c565b604082019050919050565b6135b681613ac3565b82525050565b60006020820190506135d1600083018461333a565b92915050565b60006020820190506135ec600083018461332b565b92915050565b6000606082019050613607600083018661333a565b613614602083018561331c565b61362160408301846135ad565b949350505050565b600060608201905061363e600083018661333a565b61364b602083018561333a565b61365860408301846135ad565b949350505050565b60006020820190506136756000830184613349565b92915050565b600060208201905081810360008301526136958184613367565b905092915050565b600060208201905081810360008301526136b6816133a0565b9050919050565b600060208201905081810360008301526136d6816133c3565b9050919050565b600060208201905081810360008301526136f6816133e6565b9050919050565b6000602082019050818103600083015261371681613409565b9050919050565b600060208201905081810360008301526137368161342c565b9050919050565b600060208201905081810360008301526137568161344f565b9050919050565b6000602082019050818103600083015261377681613472565b9050919050565b6000602082019050818103600083015261379681613495565b9050919050565b600060208201905081810360008301526137b6816134b8565b9050919050565b600060208201905081810360008301526137d6816134db565b9050919050565b600060208201905081810360008301526137f6816134fe565b9050919050565b6000602082019050818103600083015261381681613521565b9050919050565b6000602082019050818103600083015261383681613544565b9050919050565b6000602082019050818103600083015261385681613567565b9050919050565b600060208201905081810360008301526138768161358a565b9050919050565b600060208201905061389260008301846135ad565b92915050565b600060c0820190506138ad60008301896135ad565b6138ba6020830188613358565b6138c760408301876135ad565b6138d460608301866135ad565b6138e1608083018561332b565b6138ee60a0830184613349565b979650505050505050565b600060608201905061390e60008301866135ad565b61391b60208301856135ad565b61392860408301846135ad565b949350505050565b600081519050919050565b600082825260208201905092915050565b600061395782613ac3565b915061396283613ac3565b9250827fffffffffffffffffffffffffffffffffffffffffffffffffffffffffffffffff0382111561399757613996613ba3565b5b828201905092915050565b60006139ad82613ac3565b91506139b883613ac3565b9250826139c8576139c7613bd2565b5b828204905092915050565b60006139de82613ac3565b91506139e983613ac3565b9250817fffffffffffffffffffffffffffffffffffffffffffffffffffffffffffffffff0483118215151615613a2257613a21613ba3565b5b828202905092915050565b6000613a3882613ac3565b9150613a4383613ac3565b925082821015613a5657613a55613ba3565b5b828203905092915050565b6000613a6c82613aa3565b9050919050565b6000613a7e82613aa3565b9050919050565b60008115159050919050565b6000613a9c82613a61565b9050919050565b600073ffffffffffffffffffffffffffffffffffffffff82169050919050565b6000819050919050565b6000613ad882613b03565b9050919050565b6000613aea82613af1565b9050919050565b6000613afc82613aa3565b9050919050565b6000613b0e82613b15565b9050919050565b6000613b2082613aa3565b9050919050565b60005b83811015613b45578082015181840152602081019050613b2a565b83811115613b54576000848401525b50505050565b6000613b6582613ac3565b91507fffffffffffffffffffffffffffffffffffffffffffffffffffffffffffffffff821415613b9857613b97613ba3565b5b600182019050919050565b7f4e487b7100000000000000000000000000000000000000000000000000000000600052601160045260246000fd5b7f4e487b7100000000000000000000000000000000000000000000000000000000600052601260045260246000fd5b6000601f19601f8301169050919050565b7f6974656d20616c726561647920736f6c64000000000000000000000000000000600082015250565b7f5072696365206d7573742062652067726561746572207468616e207a65726f00600082015250565b7f506c656173652073656e64206d6f72652066756e647300000000000000000000600082015250565b7f41756374696f6e2054696d652072656d61696e696e6700000000000000000000600082015250565b7f796f7520646f6e7420686176652072657475726e206269647300000000000000600082015250565b7f41756374696f6e2068617320656e646564000000000000000000000000000000600082015250565b7f546869732061756374696f6e2068617320456e64656400000000000000000000600082015250565b7f41756374696f6e204e6f7420456e640000000000000000000000000000000000600082015250565b7f6974656d20646f65736e27742065786973740000000000000000000000000000600082015250565b7f596f752063616e6e6f742062696420696e20796f7572206f776e20617563746960008201527f6f6e000000000000000000000000000000000000000000000000000000000000602082015250565b7f41756374696f6e20646f6573206e6f7420657869737400000000000000000000600082015250565b7f41756374696f6e20666f722074686973204e4654206973206e6f7420696e207060008201527f726f677265737300000000000000000000000000000000000000000000000000602082015250565b7f796f75206172654e6f7420616c6c6f7720746f2063616e63656c206c69737400600082015250565b7f5265656e7472616e637947756172643a207265656e7472616e742063616c6c00600082015250565b7f596f7520617265206e6f7420617574686f72697a656420746f20636f6e636c7560008201527f6465207468652061756374696f6e000000000000000000000000000000000000602082015250565b613ef481613a61565b8114613eff57600080fd5b50565b613f0b81613a73565b8114613f1657600080fd5b50565b613f2281613a91565b8114613f2d57600080fd5b50565b613f3981613ac3565b8114613f4457600080fd5b5056fea2646970667358221220f057ce5a7cefdbb90fe83e089444eb56b27a64d480b3fd1301f318014b9580c964736f6c63430008040033",
  "linkReferences": {},
  "deployedLinkReferences": {}
}